{
  "address": "0x78a486306D15E7111cca541F2f1307a1cFCaF5C4",
  "abi": [
    {
      "inputs": [
        {
          "internalType": "string",
          "name": "name",
          "type": "string"
        },
        {
          "internalType": "string",
          "name": "symbol",
          "type": "string"
        },
        {
          "internalType": "address",
          "name": "_usdcAddress",
          "type": "address"
        },
        {
          "internalType": "address",
          "name": "_maiAddress",
          "type": "address"
        },
        {
          "internalType": "address",
          "name": "_lpAddress",
          "type": "address"
        },
        {
          "internalType": "address",
          "name": "_qiAddress",
          "type": "address"
        },
        {
          "internalType": "address",
          "name": "_quickSwapRouterAddress",
          "type": "address"
        },
        {
          "internalType": "address",
          "name": "_qiDaoFarmAddress",
          "type": "address"
        },
        {
          "internalType": "uint256",
          "name": "_qiDaoPoolId",
          "type": "uint256"
        }
      ],
      "stateMutability": "nonpayable",
      "type": "constructor"
    },
    {
      "anonymous": false,
      "inputs": [
        {
          "indexed": true,
          "internalType": "address",
          "name": "owner",
          "type": "address"
        },
        {
          "indexed": true,
          "internalType": "address",
          "name": "spender",
          "type": "address"
        },
        {
          "indexed": false,
          "internalType": "uint256",
          "name": "value",
          "type": "uint256"
        }
      ],
      "name": "Approval",
      "type": "event"
    },
    {
      "anonymous": false,
      "inputs": [
        {
          "indexed": false,
          "internalType": "QiQuantity",
          "name": "qi",
          "type": "uint256"
        },
        {
          "indexed": false,
          "internalType": "UsdcQuantity",
          "name": "usdc",
          "type": "uint256"
        },
        {
          "indexed": false,
          "internalType": "LpQuantity",
          "name": "lp",
          "type": "uint256"
        }
      ],
      "name": "CompoundRewards",
      "type": "event"
    },
    {
      "anonymous": false,
      "inputs": [
        {
          "indexed": false,
          "internalType": "address",
          "name": "owner",
          "type": "address"
        },
        {
          "indexed": false,
          "internalType": "UsdcQuantity",
          "name": "collateral",
          "type": "uint256"
        },
        {
          "indexed": false,
          "internalType": "PePerUsdcQuantity",
          "name": "startingRatio",
          "type": "uint256"
        }
      ],
      "name": "Initialized",
      "type": "event"
    },
    {
      "anonymous": false,
      "inputs": [
        {
          "indexed": true,
          "internalType": "address",
          "name": "to",
          "type": "address"
        },
        {
          "indexed": false,
          "internalType": "LpQuantity",
          "name": "lpAmount",
          "type": "uint256"
        },
        {
          "indexed": false,
          "internalType": "PeQuantity",
          "name": "tokenAmount",
          "type": "uint256"
        }
      ],
      "name": "LiquidityWithdrawal",
      "type": "event"
    },
    {
      "anonymous": false,
      "inputs": [
        {
          "indexed": false,
          "internalType": "address",
          "name": "operator",
          "type": "address"
        },
        {
          "indexed": false,
          "internalType": "RatioWith6Decimals",
          "name": "markupFee",
          "type": "uint256"
        }
      ],
      "name": "MarkupFeeUpdated",
      "type": "event"
    },
    {
      "anonymous": false,
      "inputs": [
        {
          "indexed": true,
          "internalType": "address",
          "name": "to",
          "type": "address"
        },
        {
          "indexed": false,
          "internalType": "UsdcQuantity",
          "name": "collateralAmount",
          "type": "uint256"
        },
        {
          "indexed": false,
          "internalType": "PeQuantity",
          "name": "tokenAmount",
          "type": "uint256"
        }
      ],
      "name": "Minted",
      "type": "event"
    },
    {
      "anonymous": false,
      "inputs": [
        {
          "indexed": true,
          "internalType": "bytes32",
          "name": "role",
          "type": "bytes32"
        },
        {
          "indexed": true,
          "internalType": "bytes32",
          "name": "previousAdminRole",
          "type": "bytes32"
        },
        {
          "indexed": true,
          "internalType": "bytes32",
          "name": "newAdminRole",
          "type": "bytes32"
        }
      ],
      "name": "RoleAdminChanged",
      "type": "event"
    },
    {
      "anonymous": false,
      "inputs": [
        {
          "indexed": true,
          "internalType": "bytes32",
          "name": "role",
          "type": "bytes32"
        },
        {
          "indexed": true,
          "internalType": "address",
          "name": "account",
          "type": "address"
        },
        {
          "indexed": true,
          "internalType": "address",
          "name": "sender",
          "type": "address"
        }
      ],
      "name": "RoleGranted",
      "type": "event"
    },
    {
      "anonymous": false,
      "inputs": [
        {
          "indexed": true,
          "internalType": "bytes32",
          "name": "role",
          "type": "bytes32"
        },
        {
          "indexed": true,
          "internalType": "address",
          "name": "account",
          "type": "address"
        },
        {
          "indexed": true,
          "internalType": "address",
          "name": "sender",
          "type": "address"
        }
      ],
      "name": "RoleRevoked",
      "type": "event"
    },
    {
      "anonymous": false,
      "inputs": [
        {
          "indexed": true,
          "internalType": "address",
          "name": "from",
          "type": "address"
        },
        {
          "indexed": true,
          "internalType": "address",
          "name": "to",
          "type": "address"
        },
        {
          "indexed": false,
          "internalType": "uint256",
          "name": "value",
          "type": "uint256"
        }
      ],
      "name": "Transfer",
      "type": "event"
    },
    {
      "anonymous": false,
      "inputs": [
        {
          "indexed": true,
          "internalType": "address",
          "name": "to",
          "type": "address"
        },
        {
          "indexed": false,
          "internalType": "UsdcQuantity",
          "name": "collateralAmount",
          "type": "uint256"
        },
        {
          "indexed": false,
          "internalType": "PeQuantity",
          "name": "tokenAmount",
          "type": "uint256"
        }
      ],
      "name": "Withdrawal",
      "type": "event"
    },
    {
      "inputs": [],
      "name": "DEFAULT_ADMIN_ROLE",
      "outputs": [
        {
          "internalType": "bytes32",
          "name": "",
          "type": "bytes32"
        }
      ],
      "stateMutability": "view",
      "type": "function"
    },
    {
      "inputs": [],
      "name": "DOMAIN_SEPARATOR",
      "outputs": [
        {
          "internalType": "bytes32",
          "name": "",
          "type": "bytes32"
        }
      ],
      "stateMutability": "view",
      "type": "function"
    },
    {
      "inputs": [],
      "name": "MARKUP_ROLE",
      "outputs": [
        {
          "internalType": "RoleId",
          "name": "",
          "type": "bytes32"
        }
      ],
      "stateMutability": "view",
      "type": "function"
    },
    {
      "inputs": [],
      "name": "MIGRATOR_ROLE",
      "outputs": [
        {
          "internalType": "RoleId",
          "name": "",
          "type": "bytes32"
        }
      ],
      "stateMutability": "view",
      "type": "function"
    },
    {
      "inputs": [],
      "name": "REWARDS_ROLE",
      "outputs": [
        {
          "internalType": "RoleId",
          "name": "",
          "type": "bytes32"
        }
      ],
      "stateMutability": "view",
      "type": "function"
    },
    {
      "inputs": [
        {
          "internalType": "address",
          "name": "owner",
          "type": "address"
        },
        {
          "internalType": "address",
          "name": "spender",
          "type": "address"
        }
      ],
      "name": "allowance",
      "outputs": [
        {
          "internalType": "uint256",
          "name": "",
          "type": "uint256"
        }
      ],
      "stateMutability": "view",
      "type": "function"
    },
    {
      "inputs": [
        {
          "internalType": "address",
          "name": "spender",
          "type": "address"
        },
        {
          "internalType": "uint256",
          "name": "amount",
          "type": "uint256"
        }
      ],
      "name": "approve",
      "outputs": [
        {
          "internalType": "bool",
          "name": "",
          "type": "bool"
        }
      ],
      "stateMutability": "nonpayable",
      "type": "function"
    },
    {
      "inputs": [
        {
          "internalType": "address",
          "name": "account",
          "type": "address"
        }
      ],
      "name": "balanceOf",
      "outputs": [
        {
          "internalType": "uint256",
          "name": "",
          "type": "uint256"
        }
      ],
      "stateMutability": "view",
      "type": "function"
    },
    {
      "inputs": [
        {
          "internalType": "uint256",
          "name": "amount",
          "type": "uint256"
        }
      ],
      "name": "burn",
      "outputs": [],
      "stateMutability": "nonpayable",
      "type": "function"
    },
    {
      "inputs": [
        {
          "internalType": "address",
          "name": "account",
          "type": "address"
        },
        {
          "internalType": "uint256",
          "name": "amount",
          "type": "uint256"
        }
      ],
      "name": "burnFrom",
      "outputs": [],
      "stateMutability": "nonpayable",
      "type": "function"
    },
    {
      "inputs": [],
      "name": "buyingPrice",
      "outputs": [
        {
          "internalType": "UsdcPerPeQuantity",
          "name": "price",
          "type": "uint256"
        }
      ],
      "stateMutability": "view",
      "type": "function"
    },
    {
      "inputs": [],
      "name": "collateralRatio",
      "outputs": [
        {
          "internalType": "UsdcPerPeQuantity",
          "name": "ratio",
          "type": "uint256"
        }
      ],
      "stateMutability": "view",
      "type": "function"
    },
    {
      "inputs": [],
      "name": "compoundRewards",
      "outputs": [
        {
          "internalType": "UsdcQuantity",
          "name": "usdcAmount",
          "type": "uint256"
        },
        {
          "internalType": "LpQuantity",
          "name": "lpAmount",
          "type": "uint256"
        }
      ],
      "stateMutability": "nonpayable",
      "type": "function"
    },
    {
      "inputs": [],
      "name": "decimals",
      "outputs": [
        {
          "internalType": "uint8",
          "name": "decimals_",
          "type": "uint8"
        }
      ],
      "stateMutability": "view",
      "type": "function"
    },
    {
      "inputs": [
        {
          "internalType": "address",
          "name": "spender",
          "type": "address"
        },
        {
          "internalType": "uint256",
          "name": "subtractedValue",
          "type": "uint256"
        }
      ],
      "name": "decreaseAllowance",
      "outputs": [
        {
          "internalType": "bool",
          "name": "",
          "type": "bool"
        }
      ],
      "stateMutability": "nonpayable",
      "type": "function"
    },
    {
      "inputs": [],
      "name": "getLpReserves",
      "outputs": [
        {
          "internalType": "UsdcQuantity",
          "name": "usdcReserves",
          "type": "uint256"
        },
        {
          "internalType": "MaiQuantity",
          "name": "maiReserves",
          "type": "uint256"
        }
      ],
      "stateMutability": "view",
      "type": "function"
    },
    {
      "inputs": [],
      "name": "getPendingRewardsAmount",
      "outputs": [
        {
          "internalType": "QiQuantity",
          "name": "qiAmount",
          "type": "uint256"
        }
      ],
      "stateMutability": "view",
      "type": "function"
    },
    {
      "inputs": [
        {
          "internalType": "bytes32",
          "name": "role",
          "type": "bytes32"
        }
      ],
      "name": "getRoleAdmin",
      "outputs": [
        {
          "internalType": "bytes32",
          "name": "",
          "type": "bytes32"
        }
      ],
      "stateMutability": "view",
      "type": "function"
    },
    {
      "inputs": [
        {
          "internalType": "bytes32",
          "name": "role",
          "type": "bytes32"
        },
        {
          "internalType": "address",
          "name": "account",
          "type": "address"
        }
      ],
      "name": "grantRole",
      "outputs": [],
      "stateMutability": "nonpayable",
      "type": "function"
    },
    {
      "inputs": [
        {
          "internalType": "bytes32",
          "name": "role",
          "type": "bytes32"
        },
        {
          "internalType": "address",
          "name": "account",
          "type": "address"
        }
      ],
      "name": "hasRole",
      "outputs": [
        {
          "internalType": "bool",
          "name": "",
          "type": "bool"
        }
      ],
      "stateMutability": "view",
      "type": "function"
    },
    {
      "inputs": [
        {
          "internalType": "address",
          "name": "spender",
          "type": "address"
        },
        {
          "internalType": "uint256",
          "name": "addedValue",
          "type": "uint256"
        }
      ],
      "name": "increaseAllowance",
      "outputs": [
        {
          "internalType": "bool",
          "name": "",
          "type": "bool"
        }
      ],
      "stateMutability": "nonpayable",
      "type": "function"
    },
    {
      "inputs": [
        {
          "internalType": "UsdcQuantity",
          "name": "usdcAmount",
          "type": "uint256"
        },
        {
          "internalType": "PePerUsdcQuantity",
          "name": "startingRatio",
          "type": "uint256"
        }
      ],
      "name": "initialize",
      "outputs": [],
      "stateMutability": "nonpayable",
      "type": "function"
    },
    {
      "inputs": [],
      "name": "initialized",
      "outputs": [
        {
          "internalType": "bool",
          "name": "",
          "type": "bool"
        }
      ],
      "stateMutability": "view",
      "type": "function"
    },
    {
      "inputs": [],
      "name": "lpAddress",
      "outputs": [
        {
          "internalType": "address",
          "name": "",
          "type": "address"
        }
      ],
      "stateMutability": "view",
      "type": "function"
    },
    {
      "inputs": [],
      "name": "maiAddress",
      "outputs": [
        {
          "internalType": "address",
          "name": "",
          "type": "address"
        }
      ],
      "stateMutability": "view",
      "type": "function"
    },
    {
      "inputs": [],
      "name": "markupFee",
      "outputs": [
        {
          "internalType": "RatioWith6Decimals",
          "name": "",
          "type": "uint256"
        }
      ],
      "stateMutability": "view",
      "type": "function"
    },
    {
      "inputs": [
        {
          "internalType": "address",
          "name": "to",
          "type": "address"
        },
        {
          "internalType": "UsdcQuantity",
          "name": "usdcAmount",
          "type": "uint256"
        },
        {
          "internalType": "PeQuantity",
          "name": "minReceive",
          "type": "uint256"
        }
      ],
      "name": "mint",
      "outputs": [
        {
          "internalType": "PeQuantity",
          "name": "peAmount",
          "type": "uint256"
        }
      ],
      "stateMutability": "nonpayable",
      "type": "function"
    },
    {
      "inputs": [
        {
          "internalType": "address",
          "name": "to",
          "type": "address"
        },
        {
          "internalType": "UsdcQuantity",
          "name": "usdcAmount",
          "type": "uint256"
        },
        {
          "internalType": "PeQuantity",
          "name": "minReceive",
          "type": "uint256"
        }
      ],
      "name": "mintForMigration",
      "outputs": [
        {
          "internalType": "PeQuantity",
          "name": "peAmount",
          "type": "uint256"
        }
      ],
      "stateMutability": "nonpayable",
      "type": "function"
    },
    {
      "inputs": [],
      "name": "name",
      "outputs": [
        {
          "internalType": "string",
          "name": "",
          "type": "string"
        }
      ],
      "stateMutability": "view",
      "type": "function"
    },
    {
      "inputs": [
        {
          "internalType": "address",
          "name": "owner",
          "type": "address"
        }
      ],
      "name": "nonces",
      "outputs": [
        {
          "internalType": "uint256",
          "name": "",
          "type": "uint256"
        }
      ],
      "stateMutability": "view",
      "type": "function"
    },
    {
      "inputs": [
        {
          "internalType": "address",
          "name": "owner",
          "type": "address"
        },
        {
          "internalType": "address",
          "name": "spender",
          "type": "address"
        },
        {
          "internalType": "uint256",
          "name": "value",
          "type": "uint256"
        },
        {
          "internalType": "uint256",
          "name": "deadline",
          "type": "uint256"
        },
        {
          "internalType": "uint8",
          "name": "v",
          "type": "uint8"
        },
        {
          "internalType": "bytes32",
          "name": "r",
          "type": "bytes32"
        },
        {
          "internalType": "bytes32",
          "name": "s",
          "type": "bytes32"
        }
      ],
      "name": "permit",
      "outputs": [],
      "stateMutability": "nonpayable",
      "type": "function"
    },
    {
      "inputs": [],
      "name": "qiAddress",
      "outputs": [
        {
          "internalType": "address",
          "name": "",
          "type": "address"
        }
      ],
      "stateMutability": "view",
      "type": "function"
    },
    {
      "inputs": [],
      "name": "qiDaoFarmAddress",
      "outputs": [
        {
          "internalType": "address",
          "name": "",
          "type": "address"
        }
      ],
      "stateMutability": "view",
      "type": "function"
    },
    {
      "inputs": [],
      "name": "qiDaoPoolId",
      "outputs": [
        {
          "internalType": "uint256",
          "name": "",
          "type": "uint256"
        }
      ],
      "stateMutability": "view",
      "type": "function"
    },
    {
      "inputs": [],
      "name": "quickSwapRouterAddress",
      "outputs": [
        {
          "internalType": "address",
          "name": "",
          "type": "address"
        }
      ],
      "stateMutability": "view",
      "type": "function"
    },
    {
      "inputs": [
        {
          "internalType": "UsdcQuantity",
          "name": "usdc",
          "type": "uint256"
        }
      ],
      "name": "quoteIn",
      "outputs": [
        {
          "internalType": "PeQuantity",
          "name": "pe",
          "type": "uint256"
        }
      ],
      "stateMutability": "view",
      "type": "function"
    },
    {
      "inputs": [
        {
          "internalType": "PeQuantity",
          "name": "pe",
          "type": "uint256"
        }
      ],
      "name": "quoteOut",
      "outputs": [
        {
          "internalType": "UsdcQuantity",
          "name": "usdc",
          "type": "uint256"
        }
      ],
      "stateMutability": "view",
      "type": "function"
    },
    {
      "inputs": [
        {
          "internalType": "bytes32",
          "name": "role",
          "type": "bytes32"
        },
        {
          "internalType": "address",
          "name": "account",
          "type": "address"
        }
      ],
      "name": "renounceRole",
      "outputs": [],
      "stateMutability": "nonpayable",
      "type": "function"
    },
    {
      "inputs": [
        {
          "internalType": "bytes32",
          "name": "role",
          "type": "bytes32"
        },
        {
          "internalType": "address",
          "name": "account",
          "type": "address"
        }
      ],
      "name": "revokeRole",
      "outputs": [],
      "stateMutability": "nonpayable",
      "type": "function"
    },
    {
      "inputs": [
        {
          "internalType": "RatioWith6Decimals",
          "name": "newMarkupFee",
          "type": "uint256"
        }
      ],
      "name": "setMarkupFee",
      "outputs": [
        {
          "internalType": "RatioWith6Decimals",
          "name": "prevMarkupFee",
          "type": "uint256"
        }
      ],
      "stateMutability": "nonpayable",
      "type": "function"
    },
    {
      "inputs": [],
      "name": "stakedBalance",
      "outputs": [
        {
          "internalType": "LpQuantity",
          "name": "lpAmount",
          "type": "uint256"
        }
      ],
      "stateMutability": "view",
      "type": "function"
    },
    {
      "inputs": [],
      "name": "stakedTokens",
      "outputs": [
        {
          "internalType": "UsdcQuantity",
          "name": "usdcAmount",
          "type": "uint256"
        },
        {
          "internalType": "MaiQuantity",
          "name": "maiAmount",
          "type": "uint256"
        }
      ],
      "stateMutability": "view",
      "type": "function"
    },
    {
      "inputs": [],
      "name": "stakedValue",
      "outputs": [
        {
          "internalType": "UsdcQuantity",
          "name": "usdcAmount",
          "type": "uint256"
        }
      ],
      "stateMutability": "view",
      "type": "function"
    },
    {
      "inputs": [
        {
          "internalType": "bytes4",
          "name": "interfaceId",
          "type": "bytes4"
        }
      ],
      "name": "supportsInterface",
      "outputs": [
        {
          "internalType": "bool",
          "name": "",
          "type": "bool"
        }
      ],
      "stateMutability": "view",
      "type": "function"
    },
    {
      "inputs": [],
      "name": "swapFee",
      "outputs": [
        {
          "internalType": "RatioWith6Decimals",
          "name": "",
          "type": "uint256"
        }
      ],
      "stateMutability": "view",
      "type": "function"
    },
    {
      "inputs": [],
      "name": "symbol",
      "outputs": [
        {
          "internalType": "string",
          "name": "",
          "type": "string"
        }
      ],
      "stateMutability": "view",
      "type": "function"
    },
    {
      "inputs": [],
      "name": "totalSupply",
      "outputs": [
        {
          "internalType": "uint256",
          "name": "",
          "type": "uint256"
        }
      ],
      "stateMutability": "view",
      "type": "function"
    },
    {
      "inputs": [
        {
          "internalType": "address",
          "name": "to",
          "type": "address"
        },
        {
          "internalType": "uint256",
          "name": "amount",
          "type": "uint256"
        }
      ],
      "name": "transfer",
      "outputs": [
        {
          "internalType": "bool",
          "name": "",
          "type": "bool"
        }
      ],
      "stateMutability": "nonpayable",
      "type": "function"
    },
    {
      "inputs": [
        {
          "internalType": "address",
          "name": "from",
          "type": "address"
        },
        {
          "internalType": "address",
          "name": "to",
          "type": "address"
        },
        {
          "internalType": "uint256",
          "name": "amount",
          "type": "uint256"
        }
      ],
      "name": "transferFrom",
      "outputs": [
        {
          "internalType": "bool",
          "name": "",
          "type": "bool"
        }
      ],
      "stateMutability": "nonpayable",
      "type": "function"
    },
    {
      "inputs": [],
      "name": "usdcAddress",
      "outputs": [
        {
          "internalType": "address",
          "name": "",
          "type": "address"
        }
      ],
      "stateMutability": "view",
      "type": "function"
    },
    {
      "inputs": [],
      "name": "usdcPrice",
      "outputs": [
        {
          "internalType": "PePerUsdcQuantity",
          "name": "price",
          "type": "uint256"
        }
      ],
      "stateMutability": "view",
      "type": "function"
    },
    {
      "inputs": [
        {
          "internalType": "address",
          "name": "to",
          "type": "address"
        },
        {
          "internalType": "PeQuantity",
          "name": "peAmount",
          "type": "uint256"
        }
      ],
      "name": "withdraw",
      "outputs": [
        {
          "internalType": "UsdcQuantity",
          "name": "usdcTotal",
          "type": "uint256"
        }
      ],
      "stateMutability": "nonpayable",
      "type": "function"
    },
    {
      "inputs": [
        {
          "internalType": "address",
          "name": "to",
          "type": "address"
        },
        {
          "internalType": "PeQuantity",
          "name": "peAmount",
          "type": "uint256"
        }
      ],
      "name": "withdrawLiquidity",
      "outputs": [
        {
          "internalType": "LpQuantity",
          "name": "lpAmount",
          "type": "uint256"
        }
      ],
      "stateMutability": "nonpayable",
      "type": "function"
    }
  ],
  "transactionHash": "0x07921256cd8dc4037a379df83b19a6d4b255a9d3b14f5cf45940fe394e68bc76",
  "args": [
    "Peronio",
    "PE",
    "0x2791Bca1f2de4661ED88A30C99A7a9449Aa84174",
    "0xa3Fa99A148fA48D14Ed51d610c367C61876997F1",
    "0x160532D2536175d65C03B97b0630A9802c274daD",
    "0x580A84C73811E1839F75d86d75d88cCa0c241fF4",
    "0xa5E0829CaCEd8fFDD4De3c43696c57F7D7A678ff",
    "0xFFD2AA58Cca3A44120aaA42CEA2852348A9c2eA6",
    "0"
  ],
  "numDeployments": 1,
  "solcInputHash": "8742f45faf9d4eb7b7ed0df364787544",
  "bytecode": "0x61022060405261c3506009556105dc600a553480156200001e57600080fd5b5060405162004cb438038062004cb4833981016040819052620000419162000385565b6040805180820190915260018152603160f81b602082015289908190818b60036200006d8382620004f8565b5060046200007c8282620004f8565b5050825160208085019190912083518483012060e08290526101008190524660a0818152604080517f8b73c3c69bb8fe3d512ecc4cf759cc79239f7b179b0ffacaa9a75d522b39400f81880181905281830187905260608201869052608082019490945230818401528151808203909301835260c0019052805194019390932091935091906080523060c05261012052505060016008555050506001600160a01b038781166101405286811661016052858116610180528381166101c0528281166101e05261020082905284166101a052336200015b600082620001ef565b620001877f74a064b2dec4aeb0b53e2d06f8e76ce531a17302a866fe51bc86d9a90b4e85e382620001ef565b620001b37f5407862f04286ebe607684514c14b7fffc750b6bf52ba44ea49569174845a5bd82620001ef565b620001df7f600e5f1c60beb469a3fa6dd3814a4ae211cc6259a6d033bae218a742f2af01d382620001ef565b50505050505050505050620005c4565b620001fb8282620001ff565b5050565b60008281526007602090815260408083206001600160a01b038516845290915290205460ff16620001fb5760008281526007602090815260408083206001600160a01b03851684529091529020805460ff191660011790556200025f3390565b6001600160a01b0316816001600160a01b0316837f2f8788117e7eff1d82e926ec794901d17c78024a50270940304540a733656f0d60405160405180910390a45050565b634e487b7160e01b600052604160045260246000fd5b600082601f830112620002cb57600080fd5b81516001600160401b0380821115620002e857620002e8620002a3565b604051601f8301601f19908116603f01168101908282118183101715620003135762000313620002a3565b816040528381526020925086838588010111156200033057600080fd5b600091505b8382101562000354578582018301518183018401529082019062000335565b600093810190920192909252949350505050565b80516001600160a01b03811681146200038057600080fd5b919050565b60008060008060008060008060006101208a8c031215620003a557600080fd5b89516001600160401b0380821115620003bd57600080fd5b620003cb8d838e01620002b9565b9a5060208c0151915080821115620003e257600080fd5b50620003f18c828d01620002b9565b9850506200040260408b0162000368565b96506200041260608b0162000368565b95506200042260808b0162000368565b94506200043260a08b0162000368565b93506200044260c08b0162000368565b92506200045260e08b0162000368565b91506101008a015190509295985092959850929598565b600181811c908216806200047e57607f821691505b6020821081036200049f57634e487b7160e01b600052602260045260246000fd5b50919050565b601f821115620004f357600081815260208120601f850160051c81016020861015620004ce5750805b601f850160051c820191505b81811015620004ef57828155600101620004da565b5050505b505050565b81516001600160401b03811115620005145762000514620002a3565b6200052c8162000525845462000469565b84620004a5565b602080601f8311600181146200056457600084156200054b5750858301515b600019600386901b1c1916600185901b178555620004ef565b600085815260208120601f198616915b82811015620005955788860151825594840194600190910190840162000574565b5085821015620005b45787850151600019600388901b60f8161c191681555b5050505050600190811b01905550565b60805160a05160c05160e05161010051610120516101405161016051610180516101a0516101c0516101e0516102005161452d62000787600039600081816105ae0152818161111501528181611b7d01528181611c680152818161252801528181612ab4015261342e0152600081816104110152818161114201528181611bac01528181611c950152818161255701528181612ae701526133650152600081816105d5015281816117c7015281816130bc0152818161321301526137bb015260008181610496015281816111bd0152818161179b01526129070152600081816106c40152818161095501528181610d23015281816113280152818161177a0152818161279d0152818161298c015261339601526000818161063501528181611738015281816128240152818161325b0152818161380301528181613b5c0152613b98015260008181610389015281816112520152818161175901528181611ad30152818161208a0152818161284e015281816129280152818161323a015281816137e201528181613b3b0152613bb90152600061261801526000612667015260006126420152600061259b015260006125c5015260006125ef015261452d6000f3fe608060405234801561001057600080fd5b50600436106103575760003560e01c806373956bc3116101c8578063a524c99c11610104578063cedb9410116100a2578063dacee3471161007c578063dacee347146107c5578063dd62ed3e146107cd578063e4a3011614610806578063f3fef3a31461081957600080fd5b8063cedb94101461078c578063d505accf1461079f578063d547741f146107b257600080fd5b8063b4eae1cb116100de578063b4eae1cb1461074d578063c00c9f7f14610755578063ca4fb87c1461075d578063cb6290091461078457600080fd5b8063a524c99c1461070a578063a9059cbb1461071d578063b282e0f91461073057600080fd5b80638f839603116101715780639b4dc8cc1161014b5780639b4dc8cc146106bf5780639d938db0146106e6578063a217fddf146106ef578063a457c2d7146106f757600080fd5b80638f8396031461065757806391d148541461067e57806395d89b41146106b757600080fd5b80637a9b71f9116101a25780637a9b71f91461060a5780637ecebe001461061d578063804bbdc61461063057600080fd5b806373956bc3146105a9578063776429e7146105d057806379cc6790146105f757600080fd5b8063313ce5671161029757806342966c68116102405780635b9f00161161021a5780635b9f0016146105495780635da0d90a146105515780636fae2e151461055957806370a082311461058057600080fd5b806342966c681461051a5780635204363e1461052d57806354cf2aeb1461054057600080fd5b806336568abe1161027157806336568abe146104ec57806339509351146104ff578063399c04251461051257600080fd5b8063313ce567146104cd57806335092dad146104dc5780633644e515146104e457600080fd5b8063156e29f61161030457806323b872dd116102de57806323b872dd1461045b578063248a9ca31461046e57806326d71f1e146104915780632f2ff15d146104b857600080fd5b8063156e29f614610433578063158ef93e1461044657806318160ddd1461045357600080fd5b806306fdde031161033557806306fdde03146103e4578063095ea7b3146103f95780630c7c6f011461040c57600080fd5b806301ffc9a71461035c57806302d454571461038457806306d47de9146103c3575b600080fd5b61036f61036a366004613d5f565b61082c565b60405190151581526020015b60405180910390f35b6103ab7f000000000000000000000000000000000000000000000000000000000000000081565b6040516001600160a01b03909116815260200161037b565b6103d66103d1366004613db6565b6108c5565b60405190815260200161037b565b6103ec6109d5565b60405161037b9190613e06565b61036f610407366004613db6565b610a67565b6103ab7f000000000000000000000000000000000000000000000000000000000000000081565b6103d6610441366004613e39565b610a7f565b600b5461036f9060ff1681565b6002546103d6565b61036f610469366004613e6e565b610af6565b6103d661047c366004613eaf565b60009081526007602052604090206001015490565b6103ab7f000000000000000000000000000000000000000000000000000000000000000081565b6104cb6104c6366004613ec8565b610b1c565b005b6040516006815260200161037b565b6103d6610b46565b6103d6610b55565b6104cb6104fa366004613ec8565b610b5f565b61036f61050d366004613db6565b610beb565b6103d6610c2a565b6104cb610528366004613eaf565b610c5a565b6103d661053b366004613e39565b610c67565b6103d6600a5481565b6103d6610cf6565b6103d6610d00565b6103d67f600e5f1c60beb469a3fa6dd3814a4ae211cc6259a6d033bae218a742f2af01d381565b6103d661058e366004613ef8565b6001600160a01b031660009081526020819052604090205490565b6103d67f000000000000000000000000000000000000000000000000000000000000000081565b6103ab7f000000000000000000000000000000000000000000000000000000000000000081565b6104cb610605366004613db6565b610d0a565b6103d6610618366004613eaf565b610d1f565b6103d661062b366004613ef8565b610f37565b6103ab7f000000000000000000000000000000000000000000000000000000000000000081565b6103d67f74a064b2dec4aeb0b53e2d06f8e76ce531a17302a866fe51bc86d9a90b4e85e381565b61036f61068c366004613ec8565b60009182526007602090815260408084206001600160a01b0393909316845291905290205460ff1690565b6103ec610f55565b6103ab7f000000000000000000000000000000000000000000000000000000000000000081565b6103d660095481565b6103d6600081565b61036f610705366004613db6565b610f64565b6103d6610718366004613eaf565b611019565b61036f61072b366004613db6565b611095565b6107386110a3565b6040805192835260208301919091520161037b565b6103d66110b7565b6107386110c1565b6103d67f5407862f04286ebe607684514c14b7fffc750b6bf52ba44ea49569174845a5bd81565b610738611319565b6103d661079a366004613eaf565b611324565b6104cb6107ad366004613f15565b611522565b6104cb6107c0366004613ec8565b611686565b6103d66116ab565b6103d66107db366004613f8c565b6001600160a01b03918216600090815260016020908152604080832093909416825291909152205490565b6104cb610814366004613fba565b6116cc565b6103d6610827366004613db6565b611a51565b60007fffffffff0000000000000000000000000000000000000000000000000000000082167f7965db0b0000000000000000000000000000000000000000000000000000000014806108bf57507f01ffc9a7000000000000000000000000000000000000000000000000000000007fffffffff000000000000000000000000000000000000000000000000000000008316145b92915050565b600060026008540361091e5760405162461bcd60e51b815260206004820152601f60248201527f5265656e7472616e637947756172643a207265656e7472616e742063616c6c0060448201526064015b60405180910390fd5b60026008553361093d83610930611b55565b610938611c20565b611c2b565b915061094882611c40565b61097c6001600160a01b037f0000000000000000000000000000000000000000000000000000000000000000168584611cfc565b6109868184611da5565b60408051838152602081018590526001600160a01b038316917e3acf01fc7fd0a8bbdc96cfc96b5ddb8fabb57027141a47a3f8ff8c06120517910160405180910390a250600160085592915050565b6060600380546109e490613fdc565b80601f0160208091040260200160405190810160405280929190818152602001828054610a1090613fdc565b8015610a5d5780601f10610a3257610100808354040283529160200191610a5d565b820191906000526020600020905b815481529060010190602001808311610a4057829003601f168201915b5050505050905090565b600033610a75818585611f2a565b5060019392505050565b6000600260085403610ad35760405162461bcd60e51b815260206004820152601f60248201527f5265656e7472616e637947756172643a207265656e7472616e742063616c6c006044820152606401610915565b6002600881905550610ae9848484600954612082565b6001600855949350505050565b600033610b048582856121ab565b610b0f85858561223d565b60019150505b9392505050565b600082815260076020526040902060010154610b3781612454565b610b41838361245e565b505050565b6000610b50612500565b905090565b6000610b5061258e565b6001600160a01b0381163314610bdd5760405162461bcd60e51b815260206004820152602f60248201527f416363657373436f6e74726f6c3a2063616e206f6e6c792072656e6f756e636560448201527f20726f6c657320666f722073656c6600000000000000000000000000000000006064820152608401610915565b610be782826126b5565b5050565b3360008181526001602090815260408083206001600160a01b0387168452909152812054909190610a759082908690610c25908790614026565b611f2a565b6000610b50610c37612738565b610c4e610c466006600a61411d565b600954612751565b6109386006600a61411d565b610c643382611da5565b50565b6000600260085403610cbb5760405162461bcd60e51b815260206004820152601f60248201527f5265656e7472616e637947756172643a207265656e7472616e742063616c6c006044820152606401610915565b6002600855610ce97f600e5f1c60beb469a3fa6dd3814a4ae211cc6259a6d033bae218a742f2af01d3612454565b610ae98484846000612082565b6000610b50611b55565b6000610b5061275d565b610d158233836121ab565b610be78282611da5565b60007f00000000000000000000000000000000000000000000000000000000000000008180610d4c612795565b915091506000836001600160a01b03166318160ddd6040518163ffffffff1660e01b8152600401602060405180830381865afa158015610d90573d6000803e3d6000fd5b505050506040513d601f19601f82011682018060405250810190610db4919061412c565b90506000610dca610dc585856128d0565b6128dc565b90506000610e33866001600160a01b0316637464fc3d6040518163ffffffff1660e01b8152600401602060405180830381865afa158015610e0f573d6000803e3d6000fd5b505050506040513d601f19601f82011682018060405250810190610dc5919061412c565b905080821115610e6b57610e6883610e6385610e4f86866128e7565b610938610e5d8860056128d0565b87612751565b612751565b92505b50506040516370a0823160e01b81526001600160a01b03851660048201819052600091610ee991906370a0823190602401602060405180830381865afa158015610eb9573d6000803e3d6000fd5b505050506040513d601f19601f82011682018060405250810190610edd919061412c565b610e6389610930611b55565b90506000610ef8858385611c2b565b90506000610f07858486611c2b565b9050610f2a82610e6383610f1b89866128e7565b610f258b886128e7565b6128f3565b9998505050505050505050565b6001600160a01b0381166000908152600560205260408120546108bf565b6060600480546109e490613fdc565b3360008181526001602090815260408083206001600160a01b0387168452909152812054909190838110156110015760405162461bcd60e51b815260206004820152602560248201527f45524332303a2064656372656173656420616c6c6f77616e63652062656c6f7760448201527f207a65726f0000000000000000000000000000000000000000000000000000006064820152608401610915565b61100e8286868403611f2a565b506001949350505050565b60006110447f74a064b2dec4aeb0b53e2d06f8e76ce531a17302a866fe51bc86d9a90b4e85e3612454565b5060098054908290557f6f51444e6a490d4270634e3b854e9959ace1fc9b287af8677dfd06d4071f77be33604080516001600160a01b039092168252602082018590520160405180910390a1919050565b600033610a7581858561223d565b6000806110ae612795565b90939092509050565b6000610b50612738565b6000806110ed7f5407862f04286ebe607684514c14b7fffc750b6bf52ba44ea49569174845a5bd612454565b6040517fe2bbb1580000000000000000000000000000000000000000000000000000000081527f00000000000000000000000000000000000000000000000000000000000000006004820152600060248201527f00000000000000000000000000000000000000000000000000000000000000006001600160a01b03169063e2bbb15890604401600060405180830381600087803b15801561118e57600080fd5b505af11580156111a2573d6000803e3d6000fd5b50506040516370a0823160e01b8152306004820152600092507f00000000000000000000000000000000000000000000000000000000000000006001600160a01b031691506370a0823190602401602060405180830381865afa15801561120d573d6000803e3d6000fd5b505050506040513d601f19601f82011682018060405250810190611231919061412c565b905061123c81612900565b506040516370a0823160e01b81523060048201527f00000000000000000000000000000000000000000000000000000000000000006001600160a01b0316906370a0823190602401602060405180830381865afa1580156112a1573d6000803e3d6000fd5b505050506040513d601f19601f820116820180604052508101906112c5919061412c565b92506112d08361294d565b60408051838152602081018690529081018290529092507fc35d86b8f236816fab54de6cb4b564fc7abbe78e7fa53fc10a3e5ff4b28da8219060600160405180910390a1509091565b6000806110ae612979565b60007f00000000000000000000000000000000000000000000000000000000000000008180611351612795565b915091506000836001600160a01b03166318160ddd6040518163ffffffff1660e01b8152600401602060405180830381865afa158015611395573d6000803e3d6000fd5b505050506040513d601f19601f820116820180604052508101906113b9919061412c565b905060006113c78488612a3f565b905060006113d68286866128f3565b90506113e28583612751565b94506113ee84826128e7565b935060006114066113ff8a856128e7565b8688611c2b565b90508082106114235761141989846128e7565b9250905080611434565b6000611430838888611c2b565b9350505b506000611444610dc587876128d0565b90506000611489886001600160a01b0316637464fc3d6040518163ffffffff1660e01b8152600401602060405180830381865afa158015610e0f573d6000803e3d6000fd5b9050808211156114a8576114a585610e6387610e4f86866128e7565b94505b50506000806114b8838688611c2b565b905060006114c785878a611c2b565b90506114d38282612a80565b9250505060006114fe82610c4e6006600a6114ee919061411d565b6114f9600954612a8c565b6128e7565b90506115148161150c611c20565b610938611b55565b9a9950505050505050505050565b834211156115725760405162461bcd60e51b815260206004820152601d60248201527f45524332305065726d69743a206578706972656420646561646c696e650000006044820152606401610915565b60007f6e71edae12b1b97f4d1f60370fef10105fa2faae0126114a169c64845d6126c98888886115a18c612b7e565b6040805160208101969096526001600160a01b0394851690860152929091166060840152608083015260a082015260c0810186905260e00160405160208183030381529060405280519060200120905060006115fc82612ba4565b9050600061160c82878787612c0d565b9050896001600160a01b0316816001600160a01b03161461166f5760405162461bcd60e51b815260206004820152601e60248201527f45524332305065726d69743a20696e76616c6964207369676e617475726500006044820152606401610915565b61167a8a8a8a611f2a565b50505050505050505050565b6000828152600760205260409020600101546116a181612454565b610b4183836126b5565b6000610b506116bc6006600a61411d565b6116c4611c20565b61093861275d565b6116d66000612454565b600b5460ff16156117295760405162461bcd60e51b815260206004820152601c60248201527f436f6e747261637420616c726561647920696e697469616c697a6564000000006044820152606401610915565b600b805460ff191660011790557f00000000000000000000000000000000000000000000000000000000000000007f00000000000000000000000000000000000000000000000000000000000000007f00000000000000000000000000000000000000000000000000000000000000007f000000000000000000000000000000000000000000000000000000000000000060006117c33390565b90507f00000000000000000000000000000000000000000000000000000000000000006000196117fe6001600160a01b03871684308c612c35565b60405163095ea7b360e01b81526001600160a01b0383811660048301526024820183905288169063095ea7b3906044016020604051808303816000875af115801561184d573d6000803e3d6000fd5b505050506040513d601f19601f820116820180604052508101906118719190614145565b5060405163095ea7b360e01b81526001600160a01b0383811660048301526024820183905287169063095ea7b3906044016020604051808303816000875af11580156118c1573d6000803e3d6000fd5b505050506040513d601f19601f820116820180604052508101906118e59190614145565b5060405163095ea7b360e01b81526001600160a01b0383811660048301526024820183905286169063095ea7b3906044016020604051808303816000875af1158015611935573d6000803e3d6000fd5b505050506040513d601f19601f820116820180604052508101906119599190614145565b5060405163095ea7b360e01b81526001600160a01b0383811660048301526024820183905285169063095ea7b3906044016020604051808303816000875af11580156119a9573d6000803e3d6000fd5b505050506040513d601f19601f820116820180604052508101906119cd9190614145565b506119d78961294d565b506119e061275d565b98506119fc836119f78b8b6109386006600a61411d565b612c86565b604080516001600160a01b0385168152602081018b90529081018990527f0f91882b50d9330af0b1d4998e6af7f2eaee90ce7e77ea54fea089af166d021d9060600160405180910390a1505050505050505050565b6000600260085403611aa55760405162461bcd60e51b815260206004820152601f60248201527f5265656e7472616e637947756172643a207265656e7472616e742063616c6c006044820152606401610915565b6002600855336000611ab984610930611b55565b9050611ac481612d65565b9250611afa6001600160a01b037f0000000000000000000000000000000000000000000000000000000000000000168685611cfc565b611b048285611da5565b60408051848152602081018690526001600160a01b038416917fdf273cb619d95419a9cd0ec88123a0538c85064229baa6363788f743fff90deb910160405180910390a25050600160085592915050565b6040517fa23831060000000000000000000000000000000000000000000000000000000081527f000000000000000000000000000000000000000000000000000000000000000060048201523060248201526000907f00000000000000000000000000000000000000000000000000000000000000006001600160a01b03169063a2383106906044015b602060405180830381865afa158015611bfc573d6000803e3d6000fd5b505050506040513d601f19601f82011682018060405250810190610b50919061412c565b6000610b5060025490565b6000611c38848484612d89565b949350505050565b6040517f441a3e700000000000000000000000000000000000000000000000000000000081527f00000000000000000000000000000000000000000000000000000000000000006004820152602481018290527f00000000000000000000000000000000000000000000000000000000000000006001600160a01b03169063441a3e7090604401600060405180830381600087803b158015611ce157600080fd5b505af1158015611cf5573d6000803e3d6000fd5b5050505050565b6040516001600160a01b038316602482015260448101829052610b419084907fa9059cbb00000000000000000000000000000000000000000000000000000000906064015b60408051601f198184030181529190526020810180517bffffffffffffffffffffffffffffffffffffffffffffffffffffffff167fffffffff0000000000000000000000000000000000000000000000000000000090931692909217909152612e37565b6001600160a01b038216611e215760405162461bcd60e51b815260206004820152602160248201527f45524332303a206275726e2066726f6d20746865207a65726f2061646472657360448201527f73000000000000000000000000000000000000000000000000000000000000006064820152608401610915565b6001600160a01b03821660009081526020819052604090205481811015611eb05760405162461bcd60e51b815260206004820152602260248201527f45524332303a206275726e20616d6f756e7420657863656564732062616c616e60448201527f63650000000000000000000000000000000000000000000000000000000000006064820152608401610915565b6001600160a01b0383166000908152602081905260408120838303905560028054849290611edf908490614167565b90915550506040518281526000906001600160a01b038516907fddf252ad1be2c89b69c2b068fc378daa952ba7f163c4a11628f55a4df523b3ef9060200160405180910390a3505050565b6001600160a01b038316611fa55760405162461bcd60e51b8152602060048201526024808201527f45524332303a20617070726f76652066726f6d20746865207a65726f2061646460448201527f72657373000000000000000000000000000000000000000000000000000000006064820152608401610915565b6001600160a01b0382166120215760405162461bcd60e51b815260206004820152602260248201527f45524332303a20617070726f766520746f20746865207a65726f20616464726560448201527f73730000000000000000000000000000000000000000000000000000000000006064820152608401610915565b6001600160a01b0383811660008181526001602090815260408083209487168084529482529182902085905590518481527f8c5be1e5ebec7d5bd14f71427d1e84f3dd0314c0f7b2291e5b200ac8c7c3b925910160405180910390a3505050565b6000336120ba7f00000000000000000000000000000000000000000000000000000000000000006001600160a01b0316823088612c35565b60006120c4611b55565b905060006120ec6120d48861294d565b610c4e6120e36006600a61411d565b6114f989612a8c565b9050612100816120fa611c20565b84611c2b565b9350858410156121525760405162461bcd60e51b815260206004820152601860248201527f4d696e696d756d207265717569726564206e6f74206d657400000000000000006044820152606401610915565b61215c8885612c86565b60408051888152602081018690526001600160a01b038516917f25b428dfde728ccfaddad7e29e4ac23c24ed7fd1a6e3e3f91894a9a073f5dfff910160405180910390a2505050949350505050565b6001600160a01b038381166000908152600160209081526040808320938616835292905220546000198114612237578181101561222a5760405162461bcd60e51b815260206004820152601d60248201527f45524332303a20696e73756666696369656e7420616c6c6f77616e63650000006044820152606401610915565b6122378484848403611f2a565b50505050565b6001600160a01b0383166122b95760405162461bcd60e51b815260206004820152602560248201527f45524332303a207472616e736665722066726f6d20746865207a65726f20616460448201527f64726573730000000000000000000000000000000000000000000000000000006064820152608401610915565b6001600160a01b0382166123355760405162461bcd60e51b815260206004820152602360248201527f45524332303a207472616e7366657220746f20746865207a65726f206164647260448201527f65737300000000000000000000000000000000000000000000000000000000006064820152608401610915565b6001600160a01b038316600090815260208190526040902054818110156123c45760405162461bcd60e51b815260206004820152602660248201527f45524332303a207472616e7366657220616d6f756e742065786365656473206260448201527f616c616e636500000000000000000000000000000000000000000000000000006064820152608401610915565b6001600160a01b038085166000908152602081905260408082208585039055918516815290812080548492906123fb908490614026565b92505081905550826001600160a01b0316846001600160a01b03167fddf252ad1be2c89b69c2b068fc378daa952ba7f163c4a11628f55a4df523b3ef8460405161244791815260200190565b60405180910390a3612237565b610c648133612f1c565b60008281526007602090815260408083206001600160a01b038516845290915290205460ff16610be75760008281526007602090815260408083206001600160a01b03851684529091529020805460ff191660011790556124bc3390565b6001600160a01b0316816001600160a01b0316837f2f8788117e7eff1d82e926ec794901d17c78024a50270940304540a733656f0d60405160405180910390a45050565b6040517fe4c75c270000000000000000000000000000000000000000000000000000000081527f000000000000000000000000000000000000000000000000000000000000000060048201523060248201526000907f00000000000000000000000000000000000000000000000000000000000000006001600160a01b03169063e4c75c2790604401611bdf565b6000306001600160a01b037f0000000000000000000000000000000000000000000000000000000000000000161480156125e757507f000000000000000000000000000000000000000000000000000000000000000046145b1561261157507f000000000000000000000000000000000000000000000000000000000000000090565b50604080517f00000000000000000000000000000000000000000000000000000000000000006020808301919091527f0000000000000000000000000000000000000000000000000000000000000000828401527f000000000000000000000000000000000000000000000000000000000000000060608301524660808301523060a0808401919091528351808403909101815260c0909201909252805191012090565b60008281526007602090815260408083206001600160a01b038516845290915290205460ff1615610be75760008281526007602090815260408083206001600160a01b0385168085529252808320805460ff1916905551339285917ff6391f5c32d9c69d2a47ea670b442974b53935d1edc7fd64eb21e047a839171b9190a45050565b6000610b506127496006600a61411d565b61093061275d565b6000610b158284614026565b600080600061276a612795565b91509150600080612779612979565b9150915061278c82610e638386886128f3565b94505050505090565b6000806000807f00000000000000000000000000000000000000000000000000000000000000006001600160a01b0316630902f1ac6040518163ffffffff1660e01b8152600401606060405180830381865afa1580156127f9573d6000803e3d6000fd5b505050506040513d601f19601f8201168201806040525081019061281d9190614198565b50915091507f00000000000000000000000000000000000000000000000000000000000000006001600160a01b03167f00000000000000000000000000000000000000000000000000000000000000006001600160a01b0316106128a257806dffffffffffffffffffffffffffff16826dffffffffffffffffffffffffffff166128c5565b816dffffffffffffffffffffffffffff16816dffffffffffffffffffffffffffff165b909590945092505050565b6000610b1582846141e8565b60006108bf82612f9c565b6000610b158284614167565b6000611c3884848461300f565b60006108bf7f00000000000000000000000000000000000000000000000000000000000000007f00000000000000000000000000000000000000000000000000000000000000008461304a565b6000806129598361317d565b90935090506129688382613206565b91506129738261334e565b50919050565b6000806000612986611b55565b905060007f00000000000000000000000000000000000000000000000000000000000000006001600160a01b03166318160ddd6040518163ffffffff1660e01b8152600401602060405180830381865afa1580156129e8573d6000803e3d6000fd5b505050506040513d601f19601f82011682018060405250810190612a0c919061412c565b9050600080612a19612795565b91509150612a28848385611c2b565b9550612a35848285611c2b565b9450505050509091565b6000610b15612a71610dc5612a67612a5a623cda29886128d0565b610e63623cda20886128d0565b86623cab64611c2b565b6114f9856107cd6107ca611c2b565b6000610b1583836134a3565b6040517f1526fe270000000000000000000000000000000000000000000000000000000081527f0000000000000000000000000000000000000000000000000000000000000000600482015260009081906001600160a01b037f00000000000000000000000000000000000000000000000000000000000000001690631526fe279060240160a060405180830381865afa158015612b2e573d6000803e3d6000fd5b505050506040513d601f19601f82011682018060405250810190612b5291906141ff565b9450505050506000612b678261ffff166134ba565b9050611c3884612b79600a5484612751565b6134c7565b6001600160a01b0381166000908152600560205260409020805460018101825590612973565b60006108bf612bb161258e565b836040517f19010000000000000000000000000000000000000000000000000000000000006020820152602281018390526042810182905260009060620160405160208183030381529060405280519060200120905092915050565b6000806000612c1e878787876134d3565b91509150612c2b816135c0565b5095945050505050565b6040516001600160a01b03808516602483015283166044820152606481018290526122379085907f23b872dd0000000000000000000000000000000000000000000000000000000090608401611d41565b6001600160a01b038216612cdc5760405162461bcd60e51b815260206004820152601f60248201527f45524332303a206d696e7420746f20746865207a65726f2061646472657373006044820152606401610915565b8060026000828254612cee9190614026565b90915550506001600160a01b03821660009081526020819052604081208054839290612d1b908490614026565b90915550506040518181526001600160a01b038316906000907fddf252ad1be2c89b69c2b068fc378daa952ba7f163c4a11628f55a4df523b3ef9060200160405180910390a35050565b600080612d7183611c40565b612d7a836137ac565b9092509050610b1582826138ed565b6000808060001985870985870292508281108382030391505080600003612dc25783600010612db757600080fd5b508290049050610b15565b838110612dce57600080fd5b60008486880960026001871981018816978890046003810283188082028403028082028403028082028403028082028403028082028403029081029092039091026000889003889004909101858311909403939093029303949094049190911702949350505050565b6000612e8c826040518060400160405280602081526020017f5361666545524332303a206c6f772d6c6576656c2063616c6c206661696c6564815250856001600160a01b03166138fc9092919063ffffffff16565b805190915015610b415780806020019051810190612eaa9190614145565b610b415760405162461bcd60e51b815260206004820152602a60248201527f5361666545524332303a204552433230206f7065726174696f6e20646964206e60448201527f6f742073756363656564000000000000000000000000000000000000000000006064820152608401610915565b60008281526007602090815260408083206001600160a01b038516845290915290205460ff16610be757612f5a816001600160a01b0316601461390b565b612f6583602061390b565b604051602001612f7692919061425e565b60408051601f198184030181529082905262461bcd60e51b825261091591600401613e06565b60006003821115612ff85750806000612fb66002836142df565b612fc1906001614026565b90505b818110156129735780600281612fda81876142df565b612fe49190614026565b612fee91906142df565b9092509050612fc4565b811561300657506001919050565b5060005b919050565b60008061301e856103e56141e8565b9050613041818481613032886103e86141e8565b61303c9190614026565b612d89565b95945050505050565b6040805160028082526060820183526000928392919060208301908036833701905050905084848260008151811061308457613084614317565b602002602001018360018151811061309e5761309e614317565b6001600160a01b0393841660209182029290920101529181169091527f0000000000000000000000000000000000000000000000000000000000000000166338ed173984600184306130f2610e1042614026565b6040518663ffffffff1660e01b815260040161311295949392919061432d565b6000604051808303816000875af1158015613131573d6000803e3d6000fd5b505050506040513d6000823e601f3d908101601f19168201604052613159919081019061439e565b60018151811061316b5761316b614317565b60200260200101519150509392505050565b600080600061318a612795565b50905060006131998286612a3f565b9050806131e85760405162461bcd60e51b815260206004820152600f60248201527f4e6f7468696e6720746f207377617000000000000000000000000000000000006044820152606401610915565b6131f181613b34565b92506131fd85826128e7565b93505050915091565b6000806001600160a01b037f00000000000000000000000000000000000000000000000000000000000000001663e8e337007f00000000000000000000000000000000000000000000000000000000000000007f000000000000000000000000000000000000000000000000000000000000000087876001803061328c610e1042614026565b60405160e08a901b7fffffffff000000000000000000000000000000000000000000000000000000001681526001600160a01b039889166004820152968816602488015260448701959095526064860193909352608485019190915260a484015290921660c482015260e4810191909152610104016060604051808303816000875af1158015613320573d6000803e3d6000fd5b505050506040513d601f19601f82011682018060405250810190613344919061445c565b9695505050505050565b60405163095ea7b360e01b81526001600160a01b037f0000000000000000000000000000000000000000000000000000000000000000818116600484015260248301849052917f00000000000000000000000000000000000000000000000000000000000000009091169063095ea7b3906044016020604051808303816000875af11580156133e1573d6000803e3d6000fd5b505050506040513d601f19601f820116820180604052508101906134059190614145565b506040517fe2bbb1580000000000000000000000000000000000000000000000000000000081527f00000000000000000000000000000000000000000000000000000000000000006004820152602481018390526001600160a01b0382169063e2bbb15890604401600060405180830381600087803b15801561348757600080fd5b505af115801561349b573d6000803e3d6000fd5b505050505050565b6000818311156134b35781610b15565b5090919050565b60006108bf8260646141e8565b6000610b158383613b81565b6000807f7fffffffffffffffffffffffffffffff5d576e7357a4501ddfe92f46681b20a083111561350a57506000905060036135b7565b8460ff16601b1415801561352257508460ff16601c14155b1561353357506000905060046135b7565b6040805160008082526020820180845289905260ff881692820192909252606081018690526080810185905260019060a0016020604051602081039080840390855afa158015613587573d6000803e3d6000fd5b5050604051601f1901519150506001600160a01b0381166135b0576000600192509250506135b7565b9150600090505b94509492505050565b60008160048111156135d4576135d461448a565b036135dc5750565b60018160048111156135f0576135f061448a565b0361363d5760405162461bcd60e51b815260206004820152601860248201527f45434453413a20696e76616c6964207369676e617475726500000000000000006044820152606401610915565b60028160048111156136515761365161448a565b0361369e5760405162461bcd60e51b815260206004820152601f60248201527f45434453413a20696e76616c6964207369676e6174757265206c656e677468006044820152606401610915565b60038160048111156136b2576136b261448a565b036137255760405162461bcd60e51b815260206004820152602260248201527f45434453413a20696e76616c6964207369676e6174757265202773272076616c60448201527f75650000000000000000000000000000000000000000000000000000000000006064820152608401610915565b60048160048111156137395761373961448a565b03610c645760405162461bcd60e51b815260206004820152602260248201527f45434453413a20696e76616c6964207369676e6174757265202776272076616c60448201527f75650000000000000000000000000000000000000000000000000000000000006064820152608401610915565b60008080806001600160a01b037f00000000000000000000000000000000000000000000000000000000000000001663baa2abde7f00000000000000000000000000000000000000000000000000000000000000007f00000000000000000000000000000000000000000000000000000000000000008860018030613833610e1042614026565b60405160e089901b7fffffffff000000000000000000000000000000000000000000000000000000001681526001600160a01b039788166004820152958716602487015260448601949094526064850192909252608484015290921660a482015260c481019190915260e40160408051808303816000875af11580156138bd573d6000803e3d6000fd5b505050506040513d601f19601f820116820180604052508101906138e191906144a0565b90969095509350505050565b6000610b1583610e6384613b91565b6060611c388484600085613bde565b6060600061391a8360026141e8565b613925906002614026565b67ffffffffffffffff81111561393d5761393d614301565b6040519080825280601f01601f191660200182016040528015613967576020820181803683370190505b5090507f30000000000000000000000000000000000000000000000000000000000000008160008151811061399e5761399e614317565b60200101907effffffffffffffffffffffffffffffffffffffffffffffffffffffffffffff1916908160001a9053507f780000000000000000000000000000000000000000000000000000000000000081600181518110613a0157613a01614317565b60200101907effffffffffffffffffffffffffffffffffffffffffffffffffffffffffffff1916908160001a9053506000613a3d8460026141e8565b613a48906001614026565b90505b6001811115613ae5577f303132333435363738396162636465660000000000000000000000000000000085600f1660108110613a8957613a89614317565b1a60f81b828281518110613a9f57613a9f614317565b60200101907effffffffffffffffffffffffffffffffffffffffffffffffffffffffffffff1916908160001a90535060049490941c93613ade816144c4565b9050613a4b565b508315610b155760405162461bcd60e51b815260206004820181905260248201527f537472696e67733a20686578206c656e67746820696e73756666696369656e746044820152606401610915565b60006108bf7f00000000000000000000000000000000000000000000000000000000000000007f00000000000000000000000000000000000000000000000000000000000000008461304a565b6000828211156134b35781610b15565b60006108bf7f00000000000000000000000000000000000000000000000000000000000000007f00000000000000000000000000000000000000000000000000000000000000008461304a565b606082471015613c565760405162461bcd60e51b815260206004820152602660248201527f416464726573733a20696e73756666696369656e742062616c616e636520666f60448201527f722063616c6c00000000000000000000000000000000000000000000000000006064820152608401610915565b6001600160a01b0385163b613cad5760405162461bcd60e51b815260206004820152601d60248201527f416464726573733a2063616c6c20746f206e6f6e2d636f6e74726163740000006044820152606401610915565b600080866001600160a01b03168587604051613cc991906144db565b60006040518083038185875af1925050503d8060008114613d06576040519150601f19603f3d011682016040523d82523d6000602084013e613d0b565b606091505b5091509150613d1b828286613d26565b979650505050505050565b60608315613d35575081610b15565b825115613d455782518084602001fd5b8160405162461bcd60e51b81526004016109159190613e06565b600060208284031215613d7157600080fd5b81357fffffffff0000000000000000000000000000000000000000000000000000000081168114610b1557600080fd5b6001600160a01b0381168114610c6457600080fd5b60008060408385031215613dc957600080fd5b8235613dd481613da1565b946020939093013593505050565b60005b83811015613dfd578181015183820152602001613de5565b50506000910152565b6020815260008251806020840152613e25816040850160208701613de2565b601f01601f19169190910160400192915050565b600080600060608486031215613e4e57600080fd5b8335613e5981613da1565b95602085013595506040909401359392505050565b600080600060608486031215613e8357600080fd5b8335613e8e81613da1565b92506020840135613e9e81613da1565b929592945050506040919091013590565b600060208284031215613ec157600080fd5b5035919050565b60008060408385031215613edb57600080fd5b823591506020830135613eed81613da1565b809150509250929050565b600060208284031215613f0a57600080fd5b8135610b1581613da1565b600080600080600080600060e0888a031215613f3057600080fd5b8735613f3b81613da1565b96506020880135613f4b81613da1565b95506040880135945060608801359350608088013560ff81168114613f6f57600080fd5b9699959850939692959460a0840135945060c09093013592915050565b60008060408385031215613f9f57600080fd5b8235613faa81613da1565b91506020830135613eed81613da1565b60008060408385031215613fcd57600080fd5b50508035926020909101359150565b600181811c90821680613ff057607f821691505b60208210810361297357634e487b7160e01b600052602260045260246000fd5b634e487b7160e01b600052601160045260246000fd5b808201808211156108bf576108bf614010565b600181815b8085111561407457816000190482111561405a5761405a614010565b8085161561406757918102915b93841c939080029061403e565b509250929050565b60008261408b575060016108bf565b81614098575060006108bf565b81600181146140ae57600281146140b8576140d4565b60019150506108bf565b60ff8411156140c9576140c9614010565b50506001821b6108bf565b5060208310610133831016604e8410600b84101617156140f7575081810a6108bf565b6141018383614039565b806000190482111561411557614115614010565b029392505050565b6000610b1560ff84168361407c565b60006020828403121561413e57600080fd5b5051919050565b60006020828403121561415757600080fd5b81518015158114610b1557600080fd5b818103818111156108bf576108bf614010565b80516dffffffffffffffffffffffffffff8116811461300a57600080fd5b6000806000606084860312156141ad57600080fd5b6141b68461417a565b92506141c46020850161417a565b9150604084015163ffffffff811681146141dd57600080fd5b809150509250925092565b80820281158282048414176108bf576108bf614010565b600080600080600060a0868803121561421757600080fd5b855161422281613da1565b80955050602086015193506040860151925060608601519150608086015161ffff8116811461425057600080fd5b809150509295509295909350565b7f416363657373436f6e74726f6c3a206163636f756e7420000000000000000000815260008351614296816017850160208801613de2565b7f206973206d697373696e6720726f6c652000000000000000000000000000000060179184019182015283516142d3816028840160208801613de2565b01602801949350505050565b6000826142fc57634e487b7160e01b600052601260045260246000fd5b500490565b634e487b7160e01b600052604160045260246000fd5b634e487b7160e01b600052603260045260246000fd5b600060a082018783526020878185015260a0604085015281875180845260c086019150828901935060005b8181101561437d5784516001600160a01b031683529383019391830191600101614358565b50506001600160a01b03969096166060850152505050608001529392505050565b600060208083850312156143b157600080fd5b825167ffffffffffffffff808211156143c957600080fd5b818501915085601f8301126143dd57600080fd5b8151818111156143ef576143ef614301565b8060051b604051601f19603f8301168101818110858211171561441457614414614301565b60405291825284820192508381018501918883111561443257600080fd5b938501935b8285101561445057845184529385019392850192614437565b98975050505050505050565b60008060006060848603121561447157600080fd5b8351925060208401519150604084015190509250925092565b634e487b7160e01b600052602160045260246000fd5b600080604083850312156144b357600080fd5b505080516020909101519092909150565b6000816144d3576144d3614010565b506000190190565b600082516144ed818460208701613de2565b919091019291505056fea2646970667358221220994358d25effadc2005483733a01226e0caf2f55d8a02002aece4e0b08ffba1764736f6c63430008110033",
  "devdoc": {
    "kind": "dev",
    "methods": {
      "DOMAIN_SEPARATOR()": {
        "details": "See {IERC20Permit-DOMAIN_SEPARATOR}."
      },
      "allowance(address,address)": {
        "details": "See {IERC20-allowance}."
      },
      "approve(address,uint256)": {
        "details": "See {IERC20-approve}. NOTE: If `amount` is the maximum `uint256`, the allowance is not updated on `transferFrom`. This is semantically equivalent to an infinite approval. Requirements: - `spender` cannot be the zero address."
      },
      "balanceOf(address)": {
        "details": "See {IERC20-balanceOf}."
      },
      "burn(uint256)": {
        "details": "Destroys `amount` tokens from the caller. See {ERC20-_burn}."
      },
      "burnFrom(address,uint256)": {
        "details": "Destroys `amount` tokens from `account`, deducting from the caller's allowance. See {ERC20-_burn} and {ERC20-allowance}. Requirements: - the caller must have allowance for ``accounts``'s tokens of at least `amount`."
      },
      "buyingPrice()": {
        "returns": {
          "price": " Minting price in USDC tokens per PE token"
        }
      },
      "collateralRatio()": {
        "returns": {
          "ratio": " Ratio of USDC tokens per PE token, with `_decimal` decimals"
        }
      },
      "compoundRewards()": {
        "custom:emit": "CompoundRewards",
        "returns": {
          "lpAmount": " The number of LP USDC/MAI tokens being put on stake",
          "usdcAmount": " The number of USDC tokens being re-invested"
        }
      },
      "constructor": {
        "params": {
          "_lpAddress": "LP Address for MAI/USDC",
          "_maiAddress": "Address used for the MAI tokens in vault",
          "_qiAddress": "Address used for the QI tokens in vault",
          "_qiDaoFarmAddress": "Address of the QiDao Farm to use",
          "_qiDaoPoolId": "Pool ID within the QiDao Farm",
          "_quickSwapRouterAddress": "Address of the QuickSwap Router to talk to",
          "_usdcAddress": "Address used for the USDC tokens in vault",
          "name": "The name of the token being created (\"Peronio\")",
          "symbol": "Symbol to use for the token being created (\"PE\")"
        }
      },
      "decimals()": {
        "returns": {
          "decimals_": " This will always be 6"
        }
      },
      "decreaseAllowance(address,uint256)": {
        "details": "Atomically decreases the allowance granted to `spender` by the caller. This is an alternative to {approve} that can be used as a mitigation for problems described in {IERC20-approve}. Emits an {Approval} event indicating the updated allowance. Requirements: - `spender` cannot be the zero address. - `spender` must have allowance for the caller of at least `subtractedValue`."
      },
      "getLpReserves()": {
        "returns": {
          "maiReserves": " Number of MAI tokens in reserve",
          "usdcReserves": " Number of USDC tokens in reserve"
        }
      },
      "getPendingRewardsAmount()": {
        "returns": {
          "qiAmount": " Number of QI tokens accrued"
        }
      },
      "getRoleAdmin(bytes32)": {
        "details": "Returns the admin role that controls `role`. See {grantRole} and {revokeRole}. To change a role's admin, use {_setRoleAdmin}."
      },
      "grantRole(bytes32,address)": {
        "details": "Grants `role` to `account`. If `account` had not been already granted `role`, emits a {RoleGranted} event. Requirements: - the caller must have ``role``'s admin role. May emit a {RoleGranted} event."
      },
      "hasRole(bytes32,address)": {
        "details": "Returns `true` if `account` has been granted `role`."
      },
      "increaseAllowance(address,uint256)": {
        "details": "Atomically increases the allowance granted to `spender` by the caller. This is an alternative to {approve} that can be used as a mitigation for problems described in {IERC20-approve}. Emits an {Approval} event indicating the updated allowance. Requirements: - `spender` cannot be the zero address."
      },
      "initialize(uint256,uint256)": {
        "custom:emit": "Initialized",
        "params": {
          "startingRatio": "Initial minting ratio in PE tokens per USDC tokens minted (including DECIMALS)",
          "usdcAmount": "Number of collateral USDC tokens"
        }
      },
      "mint(address,uint256,uint256)": {
        "custom:emit": "Minted",
        "params": {
          "minReceive": "The minimum number of PE tokens to mint",
          "to": "The address to transfer the minted PE tokens to",
          "usdcAmount": "Number of USDC tokens to use as collateral"
        },
        "returns": {
          "peAmount": " The number of PE tokens actually minted"
        }
      },
      "mintForMigration(address,uint256,uint256)": {
        "custom:emit": "Minted",
        "params": {
          "minReceive": "The minimum number of PE tokens to mint",
          "to": "The address to transfer the minted PE tokens to",
          "usdcAmount": "Number of USDC tokens to use as collateral"
        },
        "returns": {
          "peAmount": " The number of PE tokens actually minted"
        }
      },
      "name()": {
        "details": "Returns the name of the token."
      },
      "nonces(address)": {
        "details": "See {IERC20Permit-nonces}."
      },
      "permit(address,address,uint256,uint256,uint8,bytes32,bytes32)": {
        "details": "See {IERC20Permit-permit}."
      },
      "quoteIn(uint256)": {
        "details": "This method was obtained by _inlining_ the call to mint() across contracts, and cleaning up the result.",
        "params": {
          "usdc": "Number of USDC tokens to quote for"
        },
        "returns": {
          "pe": " Number of PE tokens quoted for the given number of USDC tokens"
        }
      },
      "quoteOut(uint256)": {
        "details": "This method was obtained by _inlining_ the call to withdraw() across contracts, and cleaning up the result.",
        "params": {
          "pe": "Number of PE tokens to quote for"
        },
        "returns": {
          "usdc": " Number of USDC tokens quoted for the given number of PE tokens"
        }
      },
      "renounceRole(bytes32,address)": {
        "details": "Revokes `role` from the calling account. Roles are often managed via {grantRole} and {revokeRole}: this function's purpose is to provide a mechanism for accounts to lose their privileges if they are compromised (such as when a trusted device is misplaced). If the calling account had been revoked `role`, emits a {RoleRevoked} event. Requirements: - the caller must be `account`. May emit a {RoleRevoked} event."
      },
      "revokeRole(bytes32,address)": {
        "details": "Revokes `role` from `account`. If `account` had been granted `role`, emits a {RoleRevoked} event. Requirements: - the caller must have ``role``'s admin role. May emit a {RoleRevoked} event."
      },
      "setMarkupFee(uint256)": {
        "custom:emit": "MarkupFeeUpdated",
        "params": {
          "newMarkupFee": "New markup fee value"
        },
        "returns": {
          "prevMarkupFee": " Previous markup fee value"
        }
      },
      "stakedBalance()": {
        "returns": {
          "lpAmount": " Number of LP USDC/MAI token on stake"
        }
      },
      "stakedTokens()": {
        "returns": {
          "maiAmount": " Number of MAI tokens on stake",
          "usdcAmount": " Number of USDC tokens on stake"
        }
      },
      "stakedValue()": {
        "returns": {
          "usdcAmount": " Total equivalent number of USDC token on stake"
        }
      },
      "supportsInterface(bytes4)": {
        "details": "See {IERC165-supportsInterface}."
      },
      "symbol()": {
        "details": "Returns the symbol of the token, usually a shorter version of the name."
      },
      "totalSupply()": {
        "details": "See {IERC20-totalSupply}."
      },
      "transfer(address,uint256)": {
        "details": "See {IERC20-transfer}. Requirements: - `to` cannot be the zero address. - the caller must have a balance of at least `amount`."
      },
      "transferFrom(address,address,uint256)": {
        "details": "See {IERC20-transferFrom}. Emits an {Approval} event indicating the updated allowance. This is not required by the EIP. See the note at the beginning of {ERC20}. NOTE: Does not update the allowance if the current allowance is the maximum `uint256`. Requirements: - `from` and `to` cannot be the zero address. - `from` must have a balance of at least `amount`. - the caller must have allowance for ``from``'s tokens of at least `amount`."
      },
      "usdcPrice()": {
        "returns": {
          "price": " Collateralized price in USDC tokens per PE token"
        }
      },
      "withdraw(address,uint256)": {
        "custom:emit": "Withdrawal",
        "params": {
          "peAmount": "Number of PE tokens to withdraw",
          "to": "Address to deposit extracted USDC tokens into"
        },
        "returns": {
          "usdcTotal": " Number of USDC tokens extracted"
        }
      },
      "withdrawLiquidity(address,uint256)": {
        "custom:emit": "LiquidityWithdrawal",
        "params": {
          "peAmount": "Number of PE tokens to withdraw liquidity for",
          "to": "Address to deposit extracted LP USDC/MAI tokens into"
        },
        "returns": {
          "lpAmount": " Number of LP USDC/MAI tokens extracted"
        }
      }
    },
    "stateVariables": {
      "MARKUP_ROLE": {
        "return": " The role hash in question",
        "returns": {
          "_0": " The role hash in question"
        }
      },
      "MIGRATOR_ROLE": {
        "return": " The role hash in question",
        "returns": {
          "_0": " The role hash in question"
        }
      },
      "REWARDS_ROLE": {
        "return": " The role hash in question",
        "returns": {
          "_0": " The role hash in question"
        }
      },
      "initialized": {
        "return": "True whenever the contract has already been initialized, false otherwise",
        "returns": {
          "_0": "True whenever the contract has already been initialized, false otherwise"
        }
      },
      "lpAddress": {
        "return": "The address in question",
        "returns": {
          "_0": "The address in question"
        }
      },
      "maiAddress": {
        "return": "The address in question",
        "returns": {
          "_0": "The address in question"
        }
      },
      "markupFee": {
        "return": "The markup fee to use",
        "returns": {
          "_0": "The markup fee to use"
        }
      },
      "qiAddress": {
        "return": "The address in question",
        "returns": {
          "_0": "The address in question"
        }
      },
      "qiDaoFarmAddress": {
        "return": "The address in question",
        "returns": {
          "_0": "The address in question"
        }
      },
      "qiDaoPoolId": {
        "return": "The pool ID in question",
        "returns": {
          "_0": "The pool ID in question"
        }
      },
      "quickSwapRouterAddress": {
        "return": "The address in question",
        "returns": {
          "_0": "The address in question"
        }
      },
      "swapFee": {
        "return": "The swap fee to use",
        "returns": {
          "_0": "The swap fee to use"
        }
      },
      "usdcAddress": {
        "return": "The address in question",
        "returns": {
          "_0": "The address in question"
        }
      }
    },
    "version": 1
  },
  "userdoc": {
    "events": {
      "CompoundRewards(uint256,uint256,uint256)": {
        "notice": "Emitted upon compounding rewards from QiDao's Farm back into the vault"
      },
      "Initialized(address,uint256,uint256)": {
        "notice": "Emitted upon initialization of the Peronio contract"
      },
      "LiquidityWithdrawal(address,uint256,uint256)": {
        "notice": "Emitted upon liquidity withdrawal"
      },
      "MarkupFeeUpdated(address,uint256)": {
        "notice": "Emitted upon the markup fee being updated"
      },
      "Minted(address,uint256,uint256)": {
        "notice": "Emitted upon minting PE tokens"
      },
      "Withdrawal(address,uint256,uint256)": {
        "notice": "Emitted upon collateral withdrawal"
      }
    },
    "kind": "user",
    "methods": {
      "MARKUP_ROLE()": {
        "notice": "Return the hash identifying the role responsible for updating the markup fee"
      },
      "MIGRATOR_ROLE()": {
        "notice": "Return the hash identifying the role responsible for migrating between versions"
      },
      "REWARDS_ROLE()": {
        "notice": "Return the hash identifying the role responsible for compounding rewards"
      },
      "buyingPrice()": {
        "notice": "Return the effective _minting_ price in USDC tokens per PE token"
      },
      "collateralRatio()": {
        "notice": "Return the ratio of total number of USDC tokens per PE token"
      },
      "compoundRewards()": {
        "notice": "Claim QiDao's QI token rewards, and re-invest them in the QuickSwap liquidity pool and QiDao's Farm"
      },
      "constructor": {
        "notice": "Construct a new Peronio contract"
      },
      "decimals()": {
        "notice": "Return the number of decimals the PE token will work with"
      },
      "getLpReserves()": {
        "notice": "Return the USDC and MAI token reserves present in QuickSwap"
      },
      "getPendingRewardsAmount()": {
        "notice": "Return the rewards accrued by staking LP USDC/MAI tokens in QiDao's Farm (in QI tokens)"
      },
      "initialize(uint256,uint256)": {
        "notice": "Initialize the PE token by providing collateral USDC tokens - initial conversion rate will be set at the given starting ratio"
      },
      "initialized()": {
        "notice": "Return wether the Peronio contract has been initialized yet"
      },
      "lpAddress()": {
        "notice": "Return the address used for the LP USDC/MAI tokens in vault"
      },
      "maiAddress()": {
        "notice": "Return the address used for the MAI tokens in vault"
      },
      "markupFee()": {
        "notice": "Return the markup fee the use, using `_decimals()` decimals implicitly"
      },
      "mint(address,uint256,uint256)": {
        "notice": "Mint PE tokens using the provided USDC tokens as collateral"
      },
      "mintForMigration(address,uint256,uint256)": {
        "notice": "Mint PE tokens using the provided USDC tokens as collateral --- used by the migrators in order not to incur normal fees"
      },
      "qiAddress()": {
        "notice": "Return the address used for the QI tokens in vault"
      },
      "qiDaoFarmAddress()": {
        "notice": "Return the address of the QiDao Farm to use"
      },
      "qiDaoPoolId()": {
        "notice": "Return the pool ID within the QiDao Farm"
      },
      "quickSwapRouterAddress()": {
        "notice": "Return the address of the QuickSwap Router to talk to"
      },
      "quoteIn(uint256)": {
        "notice": "Retrieve the expected number of PE tokens corresponding to the given number of USDC tokens for minting."
      },
      "quoteOut(uint256)": {
        "notice": "Retrieve the expected number of USDC tokens corresponding to the given number of PE tokens for withdrawal."
      },
      "setMarkupFee(uint256)": {
        "notice": "Set the markup fee to the given value (take into account that this will use `DECIMALS` decimals implicitly)"
      },
      "stakedBalance()": {
        "notice": "Return the number of LP USDC/MAI tokens on stake at QiDao's Farm"
      },
      "stakedTokens()": {
        "notice": "Return the number of USDC and MAI tokens on stake at QiDao's Farm"
      },
      "stakedValue()": {
        "notice": "Return the equivalent number of USDC tokens on stake at QiDao's Farm"
      },
      "swapFee()": {
        "notice": "Return the swap fee the use, using `_decimals()` decimals implicitly"
      },
      "usdcAddress()": {
        "notice": "Return the address used for the USDC tokens in vault"
      },
      "usdcPrice()": {
        "notice": "Return the _collateralized_ price in USDC tokens per PE token"
      },
      "withdraw(address,uint256)": {
        "notice": "Extract the given number of PE tokens as USDC tokens"
      },
      "withdrawLiquidity(address,uint256)": {
        "notice": "Extract the given number of PE tokens as LP USDC/MAI tokens"
      }
    },
    "version": 1
  },
  "storageLayout": {
    "storage": [
      {
        "astId": 561,
        "contract": "contracts/Peronio.sol:Peronio",
        "label": "_balances",
        "offset": 0,
        "slot": "0",
        "type": "t_mapping(t_address,t_uint256)"
      },
      {
        "astId": 567,
        "contract": "contracts/Peronio.sol:Peronio",
        "label": "_allowances",
        "offset": 0,
        "slot": "1",
        "type": "t_mapping(t_address,t_mapping(t_address,t_uint256))"
      },
      {
        "astId": 569,
        "contract": "contracts/Peronio.sol:Peronio",
        "label": "_totalSupply",
        "offset": 0,
        "slot": "2",
        "type": "t_uint256"
      },
      {
        "astId": 571,
        "contract": "contracts/Peronio.sol:Peronio",
        "label": "_name",
        "offset": 0,
        "slot": "3",
        "type": "t_string_storage"
      },
      {
        "astId": 573,
        "contract": "contracts/Peronio.sol:Peronio",
        "label": "_symbol",
        "offset": 0,
        "slot": "4",
        "type": "t_string_storage"
      },
      {
        "astId": 1301,
        "contract": "contracts/Peronio.sol:Peronio",
        "label": "_nonces",
        "offset": 0,
        "slot": "5",
        "type": "t_mapping(t_address,t_struct(Counter)2090_storage)"
      },
      {
        "astId": 1309,
        "contract": "contracts/Peronio.sol:Peronio",
        "label": "_PERMIT_TYPEHASH_DEPRECATED_SLOT",
        "offset": 0,
        "slot": "6",
        "type": "t_bytes32"
      },
      {
        "astId": 24,
        "contract": "contracts/Peronio.sol:Peronio",
        "label": "_roles",
        "offset": 0,
        "slot": "7",
        "type": "t_mapping(t_bytes32,t_struct(RoleData)19_storage)"
      },
      {
        "astId": 516,
        "contract": "contracts/Peronio.sol:Peronio",
        "label": "_status",
        "offset": 0,
        "slot": "8",
        "type": "t_uint256"
      },
      {
        "astId": 11357,
        "contract": "contracts/Peronio.sol:Peronio",
        "label": "markupFee",
        "offset": 0,
        "slot": "9",
        "type": "t_userDefinedValueType(RatioWith6Decimals)3058"
      },
      {
        "astId": 11365,
        "contract": "contracts/Peronio.sol:Peronio",
        "label": "swapFee",
        "offset": 0,
        "slot": "10",
        "type": "t_userDefinedValueType(RatioWith6Decimals)3058"
      },
      {
        "astId": 11368,
        "contract": "contracts/Peronio.sol:Peronio",
        "label": "initialized",
        "offset": 0,
        "slot": "11",
        "type": "t_bool"
      }
    ],
    "types": {
      "t_address": {
        "encoding": "inplace",
        "label": "address",
        "numberOfBytes": "20"
      },
      "t_bool": {
        "encoding": "inplace",
        "label": "bool",
        "numberOfBytes": "1"
      },
      "t_bytes32": {
        "encoding": "inplace",
        "label": "bytes32",
        "numberOfBytes": "32"
      },
      "t_mapping(t_address,t_bool)": {
        "encoding": "mapping",
        "key": "t_address",
        "label": "mapping(address => bool)",
        "numberOfBytes": "32",
        "value": "t_bool"
      },
      "t_mapping(t_address,t_mapping(t_address,t_uint256))": {
        "encoding": "mapping",
        "key": "t_address",
        "label": "mapping(address => mapping(address => uint256))",
        "numberOfBytes": "32",
        "value": "t_mapping(t_address,t_uint256)"
      },
      "t_mapping(t_address,t_struct(Counter)2090_storage)": {
        "encoding": "mapping",
        "key": "t_address",
        "label": "mapping(address => struct Counters.Counter)",
        "numberOfBytes": "32",
        "value": "t_struct(Counter)2090_storage"
      },
      "t_mapping(t_address,t_uint256)": {
        "encoding": "mapping",
        "key": "t_address",
        "label": "mapping(address => uint256)",
        "numberOfBytes": "32",
        "value": "t_uint256"
      },
      "t_mapping(t_bytes32,t_struct(RoleData)19_storage)": {
        "encoding": "mapping",
        "key": "t_bytes32",
        "label": "mapping(bytes32 => struct AccessControl.RoleData)",
        "numberOfBytes": "32",
        "value": "t_struct(RoleData)19_storage"
      },
      "t_string_storage": {
        "encoding": "bytes",
        "label": "string",
        "numberOfBytes": "32"
      },
      "t_struct(Counter)2090_storage": {
        "encoding": "inplace",
        "label": "struct Counters.Counter",
        "members": [
          {
            "astId": 2089,
            "contract": "contracts/Peronio.sol:Peronio",
            "label": "_value",
            "offset": 0,
            "slot": "0",
            "type": "t_uint256"
          }
        ],
        "numberOfBytes": "32"
      },
      "t_struct(RoleData)19_storage": {
        "encoding": "inplace",
        "label": "struct AccessControl.RoleData",
        "members": [
          {
            "astId": 16,
            "contract": "contracts/Peronio.sol:Peronio",
            "label": "members",
            "offset": 0,
            "slot": "0",
            "type": "t_mapping(t_address,t_bool)"
          },
          {
            "astId": 18,
            "contract": "contracts/Peronio.sol:Peronio",
            "label": "adminRole",
            "offset": 0,
            "slot": "1",
            "type": "t_bytes32"
          }
        ],
        "numberOfBytes": "64"
      },
      "t_uint256": {
        "encoding": "inplace",
        "label": "uint256",
        "numberOfBytes": "32"
      },
      "t_userDefinedValueType(RatioWith6Decimals)3058": {
        "encoding": "inplace",
        "label": "RatioWith6Decimals",
        "numberOfBytes": "32"
      }
    }
  }
}