{
  "address": "0xc2768beF7a6BB57F0FfA169a9ED4017c09696FF1",
  "abi": [
    {
      "inputs": [
        {
          "internalType": "string",
          "name": "name",
          "type": "string"
        },
        {
          "internalType": "string",
          "name": "symbol",
          "type": "string"
        },
        {
          "internalType": "address",
          "name": "usdcAddress",
          "type": "address"
        },
        {
          "internalType": "address",
          "name": "maiAddress",
          "type": "address"
        },
        {
          "internalType": "address",
          "name": "lpAddress",
          "type": "address"
        },
        {
          "internalType": "address",
          "name": "qiAddress",
          "type": "address"
        },
        {
          "internalType": "address",
          "name": "quickswapRouterAddress",
          "type": "address"
        },
        {
          "internalType": "address",
          "name": "qidaoFarmAddress",
          "type": "address"
        },
        {
          "internalType": "uint256",
          "name": "qidaoPoolId",
          "type": "uint256"
        }
      ],
      "stateMutability": "nonpayable",
      "type": "constructor"
    },
    {
      "anonymous": false,
      "inputs": [
        {
          "indexed": true,
          "internalType": "address",
          "name": "owner",
          "type": "address"
        },
        {
          "indexed": true,
          "internalType": "address",
          "name": "spender",
          "type": "address"
        },
        {
          "indexed": false,
          "internalType": "uint256",
          "name": "value",
          "type": "uint256"
        }
      ],
      "name": "Approval",
      "type": "event"
    },
    {
      "anonymous": false,
      "inputs": [
        {
          "indexed": false,
          "internalType": "uint256",
          "name": "qi",
          "type": "uint256"
        },
        {
          "indexed": false,
          "internalType": "uint256",
          "name": "usdc",
          "type": "uint256"
        },
        {
          "indexed": false,
          "internalType": "uint256",
          "name": "lp",
          "type": "uint256"
        }
      ],
      "name": "CompoundRewards",
      "type": "event"
    },
    {
      "anonymous": false,
      "inputs": [
        {
          "indexed": false,
          "internalType": "uint256",
          "name": "wmatic",
          "type": "uint256"
        },
        {
          "indexed": false,
          "internalType": "uint256",
          "name": "collateral",
          "type": "uint256"
        }
      ],
      "name": "HarvestedMatic",
      "type": "event"
    },
    {
      "anonymous": false,
      "inputs": [
        {
          "indexed": false,
          "internalType": "address",
          "name": "owner",
          "type": "address"
        },
        {
          "indexed": false,
          "internalType": "uint256",
          "name": "collateral",
          "type": "uint256"
        },
        {
          "indexed": false,
          "internalType": "uint256",
          "name": "startingRatio",
          "type": "uint256"
        }
      ],
      "name": "Initialized",
      "type": "event"
    },
    {
      "anonymous": false,
      "inputs": [
        {
          "indexed": false,
          "internalType": "address",
          "name": "operator",
          "type": "address"
        },
        {
          "indexed": false,
          "internalType": "uint256",
          "name": "markup",
          "type": "uint256"
        }
      ],
      "name": "MarkupUpdated",
      "type": "event"
    },
    {
      "anonymous": false,
      "inputs": [
        {
          "indexed": true,
          "internalType": "address",
          "name": "to",
          "type": "address"
        },
        {
          "indexed": false,
          "internalType": "uint256",
          "name": "collateralAmount",
          "type": "uint256"
        },
        {
          "indexed": false,
          "internalType": "uint256",
          "name": "tokenAmount",
          "type": "uint256"
        }
      ],
      "name": "Minted",
      "type": "event"
    },
    {
      "anonymous": false,
      "inputs": [
        {
          "indexed": true,
          "internalType": "bytes32",
          "name": "role",
          "type": "bytes32"
        },
        {
          "indexed": true,
          "internalType": "bytes32",
          "name": "previousAdminRole",
          "type": "bytes32"
        },
        {
          "indexed": true,
          "internalType": "bytes32",
          "name": "newAdminRole",
          "type": "bytes32"
        }
      ],
      "name": "RoleAdminChanged",
      "type": "event"
    },
    {
      "anonymous": false,
      "inputs": [
        {
          "indexed": true,
          "internalType": "bytes32",
          "name": "role",
          "type": "bytes32"
        },
        {
          "indexed": true,
          "internalType": "address",
          "name": "account",
          "type": "address"
        },
        {
          "indexed": true,
          "internalType": "address",
          "name": "sender",
          "type": "address"
        }
      ],
      "name": "RoleGranted",
      "type": "event"
    },
    {
      "anonymous": false,
      "inputs": [
        {
          "indexed": true,
          "internalType": "bytes32",
          "name": "role",
          "type": "bytes32"
        },
        {
          "indexed": true,
          "internalType": "address",
          "name": "account",
          "type": "address"
        },
        {
          "indexed": true,
          "internalType": "address",
          "name": "sender",
          "type": "address"
        }
      ],
      "name": "RoleRevoked",
      "type": "event"
    },
    {
      "anonymous": false,
      "inputs": [
        {
          "indexed": true,
          "internalType": "address",
          "name": "from",
          "type": "address"
        },
        {
          "indexed": true,
          "internalType": "address",
          "name": "to",
          "type": "address"
        },
        {
          "indexed": false,
          "internalType": "uint256",
          "name": "value",
          "type": "uint256"
        }
      ],
      "name": "Transfer",
      "type": "event"
    },
    {
      "anonymous": false,
      "inputs": [
        {
          "indexed": true,
          "internalType": "address",
          "name": "to",
          "type": "address"
        },
        {
          "indexed": false,
          "internalType": "uint256",
          "name": "collateralAmount",
          "type": "uint256"
        },
        {
          "indexed": false,
          "internalType": "uint256",
          "name": "tokenAmount",
          "type": "uint256"
        }
      ],
      "name": "Withdrawal",
      "type": "event"
    },
    {
      "inputs": [],
      "name": "DEFAULT_ADMIN_ROLE",
      "outputs": [
        {
          "internalType": "bytes32",
          "name": "",
          "type": "bytes32"
        }
      ],
      "stateMutability": "view",
      "type": "function"
    },
    {
      "inputs": [],
      "name": "DOMAIN_SEPARATOR",
      "outputs": [
        {
          "internalType": "bytes32",
          "name": "",
          "type": "bytes32"
        }
      ],
      "stateMutability": "view",
      "type": "function"
    },
    {
      "inputs": [],
      "name": "LP_ADDRESS",
      "outputs": [
        {
          "internalType": "address",
          "name": "",
          "type": "address"
        }
      ],
      "stateMutability": "view",
      "type": "function"
    },
    {
      "inputs": [],
      "name": "MAI_ADDRESS",
      "outputs": [
        {
          "internalType": "address",
          "name": "",
          "type": "address"
        }
      ],
      "stateMutability": "view",
      "type": "function"
    },
    {
      "inputs": [],
      "name": "MARKUP_DECIMALS",
      "outputs": [
        {
          "internalType": "uint8",
          "name": "",
          "type": "uint8"
        }
      ],
      "stateMutability": "view",
      "type": "function"
    },
    {
      "inputs": [],
      "name": "MARKUP_ROLE",
      "outputs": [
        {
          "internalType": "bytes32",
          "name": "",
          "type": "bytes32"
        }
      ],
      "stateMutability": "view",
      "type": "function"
    },
    {
      "inputs": [],
      "name": "QIDAO_FARM_ADDRESS",
      "outputs": [
        {
          "internalType": "address",
          "name": "",
          "type": "address"
        }
      ],
      "stateMutability": "view",
      "type": "function"
    },
    {
      "inputs": [],
      "name": "QIDAO_POOL_ID",
      "outputs": [
        {
          "internalType": "uint256",
          "name": "",
          "type": "uint256"
        }
      ],
      "stateMutability": "view",
      "type": "function"
    },
    {
      "inputs": [],
      "name": "QI_ADDRESS",
      "outputs": [
        {
          "internalType": "address",
          "name": "",
          "type": "address"
        }
      ],
      "stateMutability": "view",
      "type": "function"
    },
    {
      "inputs": [],
      "name": "QUICKSWAP_ROUTER_ADDRESS",
      "outputs": [
        {
          "internalType": "address",
          "name": "",
          "type": "address"
        }
      ],
      "stateMutability": "view",
      "type": "function"
    },
    {
      "inputs": [],
      "name": "REWARDS_ROLE",
      "outputs": [
        {
          "internalType": "bytes32",
          "name": "",
          "type": "bytes32"
        }
      ],
      "stateMutability": "view",
      "type": "function"
    },
    {
      "inputs": [],
      "name": "USDC_ADDRESS",
      "outputs": [
        {
          "internalType": "address",
          "name": "",
          "type": "address"
        }
      ],
      "stateMutability": "view",
      "type": "function"
    },
    {
      "inputs": [
        {
          "internalType": "address",
          "name": "owner",
          "type": "address"
        },
        {
          "internalType": "address",
          "name": "spender",
          "type": "address"
        }
      ],
      "name": "allowance",
      "outputs": [
        {
          "internalType": "uint256",
          "name": "",
          "type": "uint256"
        }
      ],
      "stateMutability": "view",
      "type": "function"
    },
    {
      "inputs": [
        {
          "internalType": "address",
          "name": "spender",
          "type": "address"
        },
        {
          "internalType": "uint256",
          "name": "amount",
          "type": "uint256"
        }
      ],
      "name": "approve",
      "outputs": [
        {
          "internalType": "bool",
          "name": "",
          "type": "bool"
        }
      ],
      "stateMutability": "nonpayable",
      "type": "function"
    },
    {
      "inputs": [
        {
          "internalType": "address",
          "name": "account",
          "type": "address"
        }
      ],
      "name": "balanceOf",
      "outputs": [
        {
          "internalType": "uint256",
          "name": "",
          "type": "uint256"
        }
      ],
      "stateMutability": "view",
      "type": "function"
    },
    {
      "inputs": [
        {
          "internalType": "uint256",
          "name": "amount",
          "type": "uint256"
        }
      ],
      "name": "burn",
      "outputs": [],
      "stateMutability": "nonpayable",
      "type": "function"
    },
    {
      "inputs": [
        {
          "internalType": "address",
          "name": "account",
          "type": "address"
        },
        {
          "internalType": "uint256",
          "name": "amount",
          "type": "uint256"
        }
      ],
      "name": "burnFrom",
      "outputs": [],
      "stateMutability": "nonpayable",
      "type": "function"
    },
    {
      "inputs": [],
      "name": "buyingPrice",
      "outputs": [
        {
          "internalType": "uint256",
          "name": "",
          "type": "uint256"
        }
      ],
      "stateMutability": "view",
      "type": "function"
    },
    {
      "inputs": [],
      "name": "claimRewards",
      "outputs": [],
      "stateMutability": "nonpayable",
      "type": "function"
    },
    {
      "inputs": [],
      "name": "collateralRatio",
      "outputs": [
        {
          "internalType": "uint256",
          "name": "",
          "type": "uint256"
        }
      ],
      "stateMutability": "view",
      "type": "function"
    },
    {
      "inputs": [],
      "name": "compoundRewards",
      "outputs": [
        {
          "internalType": "uint256",
          "name": "usdcAmount",
          "type": "uint256"
        },
        {
          "internalType": "uint256",
          "name": "lpAmount",
          "type": "uint256"
        }
      ],
      "stateMutability": "nonpayable",
      "type": "function"
    },
    {
      "inputs": [],
      "name": "decimals",
      "outputs": [
        {
          "internalType": "uint8",
          "name": "",
          "type": "uint8"
        }
      ],
      "stateMutability": "view",
      "type": "function"
    },
    {
      "inputs": [
        {
          "internalType": "address",
          "name": "spender",
          "type": "address"
        },
        {
          "internalType": "uint256",
          "name": "subtractedValue",
          "type": "uint256"
        }
      ],
      "name": "decreaseAllowance",
      "outputs": [
        {
          "internalType": "bool",
          "name": "",
          "type": "bool"
        }
      ],
      "stateMutability": "nonpayable",
      "type": "function"
    },
    {
      "inputs": [],
      "name": "getLpReserves",
      "outputs": [
        {
          "internalType": "uint112",
          "name": "usdcReserves",
          "type": "uint112"
        },
        {
          "internalType": "uint112",
          "name": "maiReserves",
          "type": "uint112"
        }
      ],
      "stateMutability": "view",
      "type": "function"
    },
    {
      "inputs": [],
      "name": "getPendingRewardsAmount",
      "outputs": [
        {
          "internalType": "uint256",
          "name": "amount",
          "type": "uint256"
        }
      ],
      "stateMutability": "view",
      "type": "function"
    },
    {
      "inputs": [
        {
          "internalType": "bytes32",
          "name": "role",
          "type": "bytes32"
        }
      ],
      "name": "getRoleAdmin",
      "outputs": [
        {
          "internalType": "bytes32",
          "name": "",
          "type": "bytes32"
        }
      ],
      "stateMutability": "view",
      "type": "function"
    },
    {
      "inputs": [
        {
          "internalType": "bytes32",
          "name": "role",
          "type": "bytes32"
        },
        {
          "internalType": "address",
          "name": "account",
          "type": "address"
        }
      ],
      "name": "grantRole",
      "outputs": [],
      "stateMutability": "nonpayable",
      "type": "function"
    },
    {
      "inputs": [
        {
          "internalType": "bytes32",
          "name": "role",
          "type": "bytes32"
        },
        {
          "internalType": "address",
          "name": "account",
          "type": "address"
        }
      ],
      "name": "hasRole",
      "outputs": [
        {
          "internalType": "bool",
          "name": "",
          "type": "bool"
        }
      ],
      "stateMutability": "view",
      "type": "function"
    },
    {
      "inputs": [
        {
          "internalType": "address",
          "name": "spender",
          "type": "address"
        },
        {
          "internalType": "uint256",
          "name": "addedValue",
          "type": "uint256"
        }
      ],
      "name": "increaseAllowance",
      "outputs": [
        {
          "internalType": "bool",
          "name": "",
          "type": "bool"
        }
      ],
      "stateMutability": "nonpayable",
      "type": "function"
    },
    {
      "inputs": [
        {
          "internalType": "uint256",
          "name": "usdcAmount",
          "type": "uint256"
        },
        {
          "internalType": "uint256",
          "name": "startingRatio",
          "type": "uint256"
        }
      ],
      "name": "initialize",
      "outputs": [],
      "stateMutability": "nonpayable",
      "type": "function"
    },
    {
      "inputs": [],
      "name": "initialized",
      "outputs": [
        {
          "internalType": "bool",
          "name": "",
          "type": "bool"
        }
      ],
      "stateMutability": "view",
      "type": "function"
    },
    {
      "inputs": [],
      "name": "markup",
      "outputs": [
        {
          "internalType": "uint256",
          "name": "",
          "type": "uint256"
        }
      ],
      "stateMutability": "view",
      "type": "function"
    },
    {
      "inputs": [
        {
          "internalType": "address",
          "name": "to",
          "type": "address"
        },
        {
          "internalType": "uint256",
          "name": "usdcAmount",
          "type": "uint256"
        },
        {
          "internalType": "uint256",
          "name": "minReceive",
          "type": "uint256"
        }
      ],
      "name": "mint",
      "outputs": [
        {
          "internalType": "uint256",
          "name": "peAmount",
          "type": "uint256"
        }
      ],
      "stateMutability": "nonpayable",
      "type": "function"
    },
    {
      "inputs": [],
      "name": "name",
      "outputs": [
        {
          "internalType": "string",
          "name": "",
          "type": "string"
        }
      ],
      "stateMutability": "view",
      "type": "function"
    },
    {
      "inputs": [
        {
          "internalType": "address",
          "name": "owner",
          "type": "address"
        }
      ],
      "name": "nonces",
      "outputs": [
        {
          "internalType": "uint256",
          "name": "",
          "type": "uint256"
        }
      ],
      "stateMutability": "view",
      "type": "function"
    },
    {
      "inputs": [
        {
          "internalType": "address",
          "name": "owner",
          "type": "address"
        },
        {
          "internalType": "address",
          "name": "spender",
          "type": "address"
        },
        {
          "internalType": "uint256",
          "name": "value",
          "type": "uint256"
        },
        {
          "internalType": "uint256",
          "name": "deadline",
          "type": "uint256"
        },
        {
          "internalType": "uint8",
          "name": "v",
          "type": "uint8"
        },
        {
          "internalType": "bytes32",
          "name": "r",
          "type": "bytes32"
        },
        {
          "internalType": "bytes32",
          "name": "s",
          "type": "bytes32"
        }
      ],
      "name": "permit",
      "outputs": [],
      "stateMutability": "nonpayable",
      "type": "function"
    },
    {
      "inputs": [
        {
          "internalType": "bytes32",
          "name": "role",
          "type": "bytes32"
        },
        {
          "internalType": "address",
          "name": "account",
          "type": "address"
        }
      ],
      "name": "renounceRole",
      "outputs": [],
      "stateMutability": "nonpayable",
      "type": "function"
    },
    {
      "inputs": [
        {
          "internalType": "bytes32",
          "name": "role",
          "type": "bytes32"
        },
        {
          "internalType": "address",
          "name": "account",
          "type": "address"
        }
      ],
      "name": "revokeRole",
      "outputs": [],
      "stateMutability": "nonpayable",
      "type": "function"
    },
    {
      "inputs": [
        {
          "internalType": "uint256",
          "name": "markup_",
          "type": "uint256"
        }
      ],
      "name": "setMarkup",
      "outputs": [],
      "stateMutability": "nonpayable",
      "type": "function"
    },
    {
      "inputs": [],
      "name": "stakedBalance",
      "outputs": [
        {
          "internalType": "uint256",
          "name": "",
          "type": "uint256"
        }
      ],
      "stateMutability": "view",
      "type": "function"
    },
    {
      "inputs": [],
      "name": "stakedTokens",
      "outputs": [
        {
          "internalType": "uint256",
          "name": "usdcAmount",
          "type": "uint256"
        },
        {
          "internalType": "uint256",
          "name": "maiAmount",
          "type": "uint256"
        }
      ],
      "stateMutability": "view",
      "type": "function"
    },
    {
      "inputs": [],
      "name": "stakedValue",
      "outputs": [
        {
          "internalType": "uint256",
          "name": "totalUSDC",
          "type": "uint256"
        }
      ],
      "stateMutability": "view",
      "type": "function"
    },
    {
      "inputs": [
        {
          "internalType": "bytes4",
          "name": "interfaceId",
          "type": "bytes4"
        }
      ],
      "name": "supportsInterface",
      "outputs": [
        {
          "internalType": "bool",
          "name": "",
          "type": "bool"
        }
      ],
      "stateMutability": "view",
      "type": "function"
    },
    {
      "inputs": [],
      "name": "swapFee",
      "outputs": [
        {
          "internalType": "uint256",
          "name": "",
          "type": "uint256"
        }
      ],
      "stateMutability": "view",
      "type": "function"
    },
    {
      "inputs": [],
      "name": "symbol",
      "outputs": [
        {
          "internalType": "string",
          "name": "",
          "type": "string"
        }
      ],
      "stateMutability": "view",
      "type": "function"
    },
    {
      "inputs": [],
      "name": "totalSupply",
      "outputs": [
        {
          "internalType": "uint256",
          "name": "",
          "type": "uint256"
        }
      ],
      "stateMutability": "view",
      "type": "function"
    },
    {
      "inputs": [
        {
          "internalType": "address",
          "name": "recipient",
          "type": "address"
        },
        {
          "internalType": "uint256",
          "name": "amount",
          "type": "uint256"
        }
      ],
      "name": "transfer",
      "outputs": [
        {
          "internalType": "bool",
          "name": "",
          "type": "bool"
        }
      ],
      "stateMutability": "nonpayable",
      "type": "function"
    },
    {
      "inputs": [
        {
          "internalType": "address",
          "name": "sender",
          "type": "address"
        },
        {
          "internalType": "address",
          "name": "recipient",
          "type": "address"
        },
        {
          "internalType": "uint256",
          "name": "amount",
          "type": "uint256"
        }
      ],
      "name": "transferFrom",
      "outputs": [
        {
          "internalType": "bool",
          "name": "",
          "type": "bool"
        }
      ],
      "stateMutability": "nonpayable",
      "type": "function"
    },
    {
      "inputs": [],
      "name": "usdcPrice",
      "outputs": [
        {
          "internalType": "uint256",
          "name": "",
          "type": "uint256"
        }
      ],
      "stateMutability": "view",
      "type": "function"
    },
    {
      "inputs": [
        {
          "internalType": "address",
          "name": "to",
          "type": "address"
        },
        {
          "internalType": "uint256",
          "name": "peAmount",
          "type": "uint256"
        }
      ],
      "name": "withdraw",
      "outputs": [],
      "stateMutability": "nonpayable",
      "type": "function"
    }
  ],
  "transactionHash": "0x0644bbfab8c0a1cdc18d692af62d7cc0d062b7c8cf4b43a96f7ea13dcbb421bb",
  "args": [
    "Peronio",
    "PE",
    "0x2791Bca1f2de4661ED88A30C99A7a9449Aa84174",
    "0xa3Fa99A148fA48D14Ed51d610c367C61876997F1",
    "0x160532D2536175d65C03B97b0630A9802c274daD",
    "0x580A84C73811E1839F75d86d75d88cCa0c241fF4",
    "0xa5E0829CaCEd8fFDD4De3c43696c57F7D7A678ff",
    "0x574Fe4E8120C4Da1741b5Fd45584de7A5b521F0F",
    "1"
  ],
  "numDeployments": 1,
  "solcInputHash": "64f365930fca704292896b4fa2e86b92",
  "bytecode": "0x6102206040527f6e71edae12b1b97f4d1f60370fef10105fa2faae0126114a169c64845d6126c9610120526200003860026005620006a0565b6200004590600a620005b2565b620000529060056200067e565b6007556200006360046005620006a0565b6200007090600a620005b2565b6200007d90600f6200067e565b6008556009805460ff191690553480156200009757600080fd5b50604051620044e9380380620044e9833981016040819052620000ba9162000488565b8880604051806040016040528060018152602001603160f81b8152508b8b8160039080519060200190620000f092919062000312565b5080516200010690600490602084019062000312565b5050825160209384012082519284019290922060c083815260e08290524660a0818152604080517f8b73c3c69bb8fe3d512ecc4cf759cc79239f7b179b0ffacaa9a75d522b39400f818a01819052818301989098526060808201969096526080808201949094523081840152815180820390930183529093019092528151919095012090935250610100526001600160601b031989821b81166101405288821b81166101605287821b81166101805285821b81166101a05284821b81166101c0526102008490529086901b166101e05250620001e46000336200024b565b620002107f74a064b2dec4aeb0b53e2d06f8e76ce531a17302a866fe51bc86d9a90b4e85e3336200024b565b6200023c7f5407862f04286ebe607684514c14b7fffc750b6bf52ba44ea49569174845a5bd336200024b565b5050505050505050506200072f565b6200025782826200025b565b5050565b620002678282620002e5565b620002575760008281526006602090815260408083206001600160a01b03851684529091529020805460ff19166001179055620002a13390565b6001600160a01b0316816001600160a01b0316837f2f8788117e7eff1d82e926ec794901d17c78024a50270940304540a733656f0d60405160405180910390a45050565b60008281526006602090815260408083206001600160a01b038516845290915290205460ff165b92915050565b8280546200032090620006c6565b90600052602060002090601f0160209004810192826200034457600085556200038f565b82601f106200035f57805160ff19168380011785556200038f565b828001600101855582156200038f579182015b828111156200038f57825182559160200191906001019062000372565b506200039d929150620003a1565b5090565b5b808211156200039d5760008155600101620003a2565b80516001600160a01b0381168114620003d057600080fd5b919050565b600082601f830112620003e6578081fd5b81516001600160401b038082111562000403576200040362000719565b604051601f8301601f19908116603f011681019082821181831017156200042e576200042e62000719565b816040528381526020925086838588010111156200044a578485fd5b8491505b838210156200046d57858201830151818301840152908201906200044e565b838211156200047e57848385830101525b9695505050505050565b60008060008060008060008060006101208a8c031215620004a7578485fd5b89516001600160401b0380821115620004be578687fd5b620004cc8d838e01620003d5565b9a5060208c0151915080821115620004e2578687fd5b50620004f18c828d01620003d5565b9850506200050260408b01620003b8565b96506200051260608b01620003b8565b95506200052260808b01620003b8565b94506200053260a08b01620003b8565b93506200054260c08b01620003b8565b92506200055260e08b01620003b8565b91506101008a015190509295985092959850929598565b600181815b80851115620005aa5781600019048211156200058e576200058e62000703565b808516156200059c57918102915b93841c93908002906200056e565b509250929050565b6000620005c360ff841683620005ca565b9392505050565b600082620005db575060016200030c565b81620005ea575060006200030c565b81600181146200060357600281146200060e576200062e565b60019150506200030c565b60ff84111562000622576200062262000703565b50506001821b6200030c565b5060208310610133831016604e8410600b841016171562000653575081810a6200030c565b6200065f838362000569565b806000190482111562000676576200067662000703565b029392505050565b60008160001904831182151516156200069b576200069b62000703565b500290565b600060ff821660ff841680821015620006bd57620006bd62000703565b90039392505050565b600181811c90821680620006db57607f821691505b60208210811415620006fd57634e487b7160e01b600052602260045260246000fd5b50919050565b634e487b7160e01b600052601160045260246000fd5b634e487b7160e01b600052604160045260246000fd5b60805160a05160c05160e05161010051610120516101405160601c6101605160601c6101805160601c6101a05160601c6101c05160601c6101e05160601c61020051613be5620009046000396000818161064301528181610b34015281816119bd01528181611ef201528181612b7801526131e601526000818161070b01528181610ebe01528181610f6801526116a401526000818161045e01528181610b61015281816119ec01528181611f2101528181612abd01528181612ba501526132130152600081816103790152818161102501528181611426015281816114ef015281816115b20152818161167501528181612692015281816129720152613257015260008181610690015281816115e1015281816122e0015281816123f40152612aec0152600081816105e4015281816114590152818161237f015281816125d5015281816128fd015281816129ba015261329f0152600081816105a00152818161083901528181610fca015281816113df0152818161151e0152818161181f015281816123a2015281816126370152818161289b01528181612999015261327e015260006111b201526000611fae01526000611ffd01526000611fd801526000611f5c01526000611f850152613be56000f3fe608060405234801561001057600080fd5b50600436106102d65760003560e01c80638b9789c911610182578063c5a92656116100e9578063d56cf10f116100a2578063e4a301161161007c578063e4a30116146106f3578063e4b4bcbd14610706578063e56a93b81461072d578063f3fef3a31461073557600080fd5b8063d56cf10f1461068b578063dacee347146106b2578063dd62ed3e146106ba57600080fd5b8063c5a9265614610606578063ca4fb87c1461060f578063cb62900914610636578063d4f09d021461063e578063d505accf14610665578063d547741f1461067857600080fd5b8063a9059cbb1161013b578063a9059cbb14610558578063b282e0f91461056b578063b4eae1cb14610593578063bb09d9b71461059b578063c00c9f7f146105c2578063c2ba6a63146105df57600080fd5b80638b9789c9146104e85780638f839603146104fb57806391d148541461052257806395d89b4114610535578063a217fddf1461053d578063a457c2d71461054557600080fd5b80633644e5151161024157806349111617116101fa5780635da0d90a116101d45780635da0d90a1461049157806370a082311461049957806379cc6790146104c25780637ecebe00146104d557600080fd5b8063491116171461045957806354cf2aeb146104805780635b9f00161461048957600080fd5b80633644e5151461040857806336568abe14610410578063372500ab14610423578063395093511461042b578063399c04251461043e57806342966c681461044657600080fd5b806323b872dd1161029357806323b872dd146103615780632467e5ab14610374578063248a9ca3146103b35780632f2ff15d146103d6578063313ce567146103eb57806335092dad1461040057600080fd5b806301ffc9a7146102db57806306fdde0314610303578063095ea7b314610318578063156e29f61461032b578063158ef93e1461034c57806318160ddd14610359575b600080fd5b6102ee6102e936600461377c565b610748565b60405190151581526020015b60405180910390f35b61030b61077f565b6040516102fa919061390c565b6102ee610326366004613607565b610811565b61033e610339366004613630565b610827565b6040519081526020016102fa565b6009546102ee9060ff1681565b60025461033e565b6102ee61036f36600461355b565b61098c565b61039b7f000000000000000000000000000000000000000000000000000000000000000081565b6040516001600160a01b0390911681526020016102fa565b61033e6103c1366004613742565b60009081526006602052604090206001015490565b6103e96103e436600461375a565b610a38565b005b60065b60405160ff90911681526020016102fa565b61033e610a63565b61033e610a72565b6103e961041e36600461375a565b610a7c565b6103e9610afa565b6102ee610439366004613607565b610bc9565b61033e610c05565b6103e9610454366004613742565b610c44565b61039b7f000000000000000000000000000000000000000000000000000000000000000081565b61033e60085481565b61033e610c51565b61033e610c5b565b61033e6104a736600461350f565b6001600160a01b031660009081526020819052604090205490565b6103e96104d0366004613607565b610c65565b61033e6104e336600461350f565b610ce6565b6103e96104f6366004613742565b610d04565b61033e7f74a064b2dec4aeb0b53e2d06f8e76ce531a17302a866fe51bc86d9a90b4e85e381565b6102ee61053036600461375a565b610d7b565b61030b610da6565b61033e600081565b6102ee610553366004613607565b610db5565b6102ee610566366004613607565b610e4e565b610573610e5b565b604080516001600160701b039384168152929091166020830152016102fa565b61033e610e6e565b61039b7f000000000000000000000000000000000000000000000000000000000000000081565b6105ca610e78565b604080519283526020830191909152016102fa565b61039b7f000000000000000000000000000000000000000000000000000000000000000081565b61033e60075481565b61033e7f5407862f04286ebe607684514c14b7fffc750b6bf52ba44ea49569174845a5bd81565b6105ca611153565b61033e7f000000000000000000000000000000000000000000000000000000000000000081565b6103e9610673366004613596565b61115e565b6103e961068636600461375a565b6112c2565b61039b7f000000000000000000000000000000000000000000000000000000000000000081565b61033e6112e8565b61033e6106c8366004613529565b6001600160a01b03918216600090815260016020908152604080832093909416825291909152205490565b6103e961070136600461380a565b61137b565b61039b7f000000000000000000000000000000000000000000000000000000000000000081565b6103ee600581565b6103e9610743366004613607565b6117ab565b60006001600160e01b03198216637965db0b60e01b148061077957506301ffc9a760e01b6001600160e01b03198316145b92915050565b60606003805461078e90613b4e565b80601f01602080910402602001604051908101604052809291908181526020018280546107ba90613b4e565b80156108075780601f106107dc57610100808354040283529160200191610807565b820191906000526020600020905b8154815290600101906020018083116107ea57829003601f168201915b5050505050905090565b600061081e33848461188a565b50600192915050565b6000806108326119ae565b90506108697f00000000000000000000000000000000000000000000000000000000000000006001600160a01b0316333087611a6f565b600061087485611ae0565b905060006108a76108876005600a613a2a565b6108a160085460075461089a9190613af4565b8590611b28565b90611b34565b90506108b38282611b40565b915060006108c9846108a185633b9aca00611b28565b90506108e6633b9aca006108a16108df60025490565b8490611b28565b945085851161093c5760405162461bcd60e51b815260206004820152601860248201527f4d696e696d756d207265717569726564206e6f74206d6574000000000000000060448201526064015b60405180910390fd5b6109468886611b4c565b604080518881526020810187905233917f25b428dfde728ccfaddad7e29e4ac23c24ed7fd1a6e3e3f91894a9a073f5dfff910160405180910390a2505050509392505050565b6000610999848484611c2b565b6001600160a01b038416600090815260016020908152604080832033845290915290205482811015610a1e5760405162461bcd60e51b815260206004820152602860248201527f45524332303a207472616e7366657220616d6f756e74206578636565647320616044820152676c6c6f77616e636560c01b6064820152608401610933565b610a2b853385840361188a565b60019150505b9392505050565b600082815260066020526040902060010154610a548133611df9565b610a5e8383611e5d565b505050565b6000610a6d611ee3565b905090565b6000610a6d611f58565b6001600160a01b0381163314610aec5760405162461bcd60e51b815260206004820152602f60248201527f416363657373436f6e74726f6c3a2063616e206f6e6c792072656e6f756e636560448201526e103937b632b9903337b91039b2b63360891b6064820152608401610933565b610af6828261204b565b5050565b7f5407862f04286ebe607684514c14b7fffc750b6bf52ba44ea49569174845a5bd610b258133611df9565b604051631c57762b60e31b81527f00000000000000000000000000000000000000000000000000000000000000006004820152600060248201527f00000000000000000000000000000000000000000000000000000000000000006001600160a01b03169063e2bbb158906044015b600060405180830381600087803b158015610bae57600080fd5b505af1158015610bc2573d6000803e3d6000fd5b5050505050565b3360008181526001602090815260408083206001600160a01b0387168452909152812054909161081e918590610c009086906139af565b61188a565b600080610c106120b2565b90506000610c31610c236005600a613a2a565b6007546108a1908590611b28565b9050610c3d81836139af565b9250505090565b610c4e338261213f565b50565b6000610a6d6119ae565b6000610a6d61228d565b6000610c7183336106c8565b905081811015610ccf5760405162461bcd60e51b8152602060048201526024808201527f45524332303a206275726e20616d6f756e74206578636565647320616c6c6f77604482015263616e636560e01b6064820152608401610933565b610cdc833384840361188a565b610a5e838361213f565b6001600160a01b038116600090815260056020526040812054610779565b7f74a064b2dec4aeb0b53e2d06f8e76ce531a17302a866fe51bc86d9a90b4e85e3610d2f8133611df9565b60078290557fd1a3ca5ae3a8b741052365aa0dabdd2bb79673a49f36b3528d216cc5f948f1fb33604080516001600160a01b039092168252602082018590520160405180910390a15050565b60009182526006602090815260408084206001600160a01b0393909316845291905290205460ff1690565b60606004805461078e90613b4e565b3360009081526001602090815260408083206001600160a01b038616845290915281205482811015610e375760405162461bcd60e51b815260206004820152602560248201527f45524332303a2064656372656173656420616c6c6f77616e63652062656c6f77604482015264207a65726f60d81b6064820152608401610933565b610e44338585840361188a565b5060019392505050565b600061081e338484611c2b565b600080610e666122d8565b915091509091565b6000610a6d6120b2565b6000807f5407862f04286ebe607684514c14b7fffc750b6bf52ba44ea49569174845a5bd610ea68133611df9565b6040516370a0823160e01b81523060048201526000907f00000000000000000000000000000000000000000000000000000000000000006001600160a01b0316906370a082319060240160206040518083038186803b158015610f0857600080fd5b505afa158015610f1c573d6000803e3d6000fd5b505050506040513d601f19601f82011682018060405250810190610f4091906137f2565b60408051600280825260608201835292935060009290916020830190803683370190505090507f000000000000000000000000000000000000000000000000000000000000000081600081518110610fa857634e487b7160e01b600052603260045260246000fd5b60200260200101906001600160a01b031690816001600160a01b0316815250507f00000000000000000000000000000000000000000000000000000000000000008160018151811061100a57634e487b7160e01b600052603260045260246000fd5b6001600160a01b0392831660209182029290920101526000907f0000000000000000000000000000000000000000000000000000000000000000166338ed1739846001853061105b42610e106139af565b6040518663ffffffff1660e01b815260040161107b95949392919061393f565b600060405180830381600087803b15801561109557600080fd5b505af11580156110a9573d6000803e3d6000fd5b505050506040513d6000823e601f3d908101601f191682016040526110d19190810190613662565b9050806001815181106110f457634e487b7160e01b600052603260045260246000fd5b6020026020010151955061110786611ae0565b60408051858152602081018990529081018290529095507fc35d86b8f236816fab54de6cb4b564fc7abbe78e7fa53fc10a3e5ff4b28da8219060600160405180910390a1505050509091565b600080610e666123de565b834211156111ae5760405162461bcd60e51b815260206004820152601d60248201527f45524332305065726d69743a206578706972656420646561646c696e650000006044820152606401610933565b60007f00000000000000000000000000000000000000000000000000000000000000008888886111dd8c6124f1565b6040805160208101969096526001600160a01b0394851690860152929091166060840152608083015260a082015260c0810186905260e001604051602081830303815290604052805190602001209050600061123882612519565b9050600061124882878787612567565b9050896001600160a01b0316816001600160a01b0316146112ab5760405162461bcd60e51b815260206004820152601e60248201527f45524332305065726d69743a20696e76616c6964207369676e617475726500006044820152606401610933565b6112b68a8a8a61188a565b50505050505050505050565b6000828152600660205260409020600101546112de8133611df9565b610a5e838361204b565b6000610a6d6112f561228d565b6108a16113046006600a613a2a565b306001600160a01b03166318160ddd6040518163ffffffff1660e01b815260040160206040518083038186803b15801561133d57600080fd5b505afa158015611351573d6000803e3d6000fd5b505050506040513d601f19601f8201168201806040525081019061137591906137f2565b90611b28565b60006113878133611df9565b60095460ff16156113da5760405162461bcd60e51b815260206004820152601c60248201527f436f6e747261637420616c726561647920696e697469616c697a6564000000006044820152606401610933565b61140f7f00000000000000000000000000000000000000000000000000000000000000006001600160a01b0316333086611a6f565b60405163095ea7b360e01b81526001600160a01b037f00000000000000000000000000000000000000000000000000000000000000008116600483015260001960248301819052917f00000000000000000000000000000000000000000000000000000000000000009091169063095ea7b390604401602060405180830381600087803b15801561149f57600080fd5b505af11580156114b3573d6000803e3d6000fd5b505050506040513d601f19601f820116820180604052508101906114d79190613722565b5060405163095ea7b360e01b81526001600160a01b037f000000000000000000000000000000000000000000000000000000000000000081166004830152602482018390527f0000000000000000000000000000000000000000000000000000000000000000169063095ea7b390604401602060405180830381600087803b15801561156257600080fd5b505af1158015611576573d6000803e3d6000fd5b505050506040513d601f19601f8201168201806040525081019061159a9190613722565b5060405163095ea7b360e01b81526001600160a01b037f000000000000000000000000000000000000000000000000000000000000000081166004830152602482018390527f0000000000000000000000000000000000000000000000000000000000000000169063095ea7b390604401602060405180830381600087803b15801561162557600080fd5b505af1158015611639573d6000803e3d6000fd5b505050506040513d601f19601f8201168201806040525081019061165d9190613722565b5060405163095ea7b360e01b81526001600160a01b037f000000000000000000000000000000000000000000000000000000000000000081166004830152602482018390527f0000000000000000000000000000000000000000000000000000000000000000169063095ea7b390604401602060405180830381600087803b1580156116e857600080fd5b505af11580156116fc573d6000803e3d6000fd5b505050506040513d601f19601f820116820180604052508101906117209190613722565b5061172a84611ae0565b5061173361228d565b9350611748336117438587611b28565b611b4c565b6009805460ff191660011790557f0f91882b50d9330af0b1d4998e6af7f2eaee90ce7e77ea54fea089af166d021d61177d3390565b604080516001600160a01b03909216825260208201879052810185905260600160405180910390a150505050565b60006117c76117b960025490565b6108a184633b9aca00611b28565b905060006117de633b9aca006108a161089a6119ae565b90506000806117ec8361258f565b909250905060006117fc826125ae565b61180690846139af565b9050611812338761213f565b6118466001600160a01b037f0000000000000000000000000000000000000000000000000000000000000000168883612772565b604080518281526020810188905233917fdf273cb619d95419a9cd0ec88123a0538c85064229baa6363788f743fff90deb910160405180910390a250505050505050565b6001600160a01b0383166118ec5760405162461bcd60e51b8152602060048201526024808201527f45524332303a20617070726f76652066726f6d20746865207a65726f206164646044820152637265737360e01b6064820152608401610933565b6001600160a01b03821661194d5760405162461bcd60e51b815260206004820152602260248201527f45524332303a20617070726f766520746f20746865207a65726f206164647265604482015261737360f01b6064820152608401610933565b6001600160a01b0383811660008181526001602090815260408083209487168084529482529182902085905590518481527f8c5be1e5ebec7d5bd14f71427d1e84f3dd0314c0f7b2291e5b200ac8c7c3b925910160405180910390a3505050565b60405163511c188360e11b81527f000000000000000000000000000000000000000000000000000000000000000060048201523060248201526000907f00000000000000000000000000000000000000000000000000000000000000006001600160a01b03169063a2383106906044015b60206040518083038186803b158015611a3757600080fd5b505afa158015611a4b573d6000803e3d6000fd5b505050506040513d601f19601f82011682018060405250810190610a6d91906137f2565b6040516001600160a01b0380851660248301528316604482015260648101829052611ada9085906323b872dd60e01b906084015b60408051601f198184030181529190526020810180516001600160e01b03166001600160e01b0319909316929092179091526127a2565b50505050565b600080611aee836002611b34565b90506000611afc8483611b40565b90506000611b0983612874565b9050611b15828261293d565b9350611b2084612aa6565b505050919050565b6000610a318284613ad5565b6000610a3182846139c7565b6000610a318284613af4565b6001600160a01b038216611ba25760405162461bcd60e51b815260206004820152601f60248201527f45524332303a206d696e7420746f20746865207a65726f2061646472657373006044820152606401610933565b8060026000828254611bb491906139af565b90915550506001600160a01b03821660009081526020819052604081208054839290611be19084906139af565b90915550506040518181526001600160a01b038316906000907fddf252ad1be2c89b69c2b068fc378daa952ba7f163c4a11628f55a4df523b3ef9060200160405180910390a35050565b6001600160a01b038316611c8f5760405162461bcd60e51b815260206004820152602560248201527f45524332303a207472616e736665722066726f6d20746865207a65726f206164604482015264647265737360d81b6064820152608401610933565b6001600160a01b038216611cf15760405162461bcd60e51b815260206004820152602360248201527f45524332303a207472616e7366657220746f20746865207a65726f206164647260448201526265737360e81b6064820152608401610933565b6001600160a01b03831660009081526020819052604090205481811015611d695760405162461bcd60e51b815260206004820152602660248201527f45524332303a207472616e7366657220616d6f756e7420657863656564732062604482015265616c616e636560d01b6064820152608401610933565b6001600160a01b03808516600090815260208190526040808220858503905591851681529081208054849290611da09084906139af565b92505081905550826001600160a01b0316846001600160a01b03167fddf252ad1be2c89b69c2b068fc378daa952ba7f163c4a11628f55a4df523b3ef84604051611dec91815260200190565b60405180910390a3611ada565b611e038282610d7b565b610af657611e1b816001600160a01b03166014612bdc565b611e26836020612bdc565b604051602001611e37929190613897565b60408051601f198184030181529082905262461bcd60e51b82526109339160040161390c565b611e678282610d7b565b610af65760008281526006602090815260408083206001600160a01b03851684529091529020805460ff19166001179055611e9f3390565b6001600160a01b0316816001600160a01b0316837f2f8788117e7eff1d82e926ec794901d17c78024a50270940304540a733656f0d60405160405180910390a45050565b60405163e4c75c2760e01b81527f000000000000000000000000000000000000000000000000000000000000000060048201523060248201526000907f00000000000000000000000000000000000000000000000000000000000000006001600160a01b03169063e4c75c2790604401611a1f565b60007f0000000000000000000000000000000000000000000000000000000000000000461415611fa757507f000000000000000000000000000000000000000000000000000000000000000090565b50604080517f00000000000000000000000000000000000000000000000000000000000000006020808301919091527f0000000000000000000000000000000000000000000000000000000000000000828401527f000000000000000000000000000000000000000000000000000000000000000060608301524660808301523060a0808401919091528351808403909101815260c0909201909252805191012090565b6120558282610d7b565b15610af65760008281526006602090815260408083206001600160a01b0385168085529252808320805460ff1916905551339285917ff6391f5c32d9c69d2a47ea670b442974b53935d1edc7fd64eb21e047a839171b9190a45050565b6000610a6d306001600160a01b03166318160ddd6040518163ffffffff1660e01b815260040160206040518083038186803b1580156120f057600080fd5b505afa158015612104573d6000803e3d6000fd5b505050506040513d601f19601f8201168201806040525081019061212891906137f2565b6108a16121376006600a613a2a565b61137561228d565b6001600160a01b03821661219f5760405162461bcd60e51b815260206004820152602160248201527f45524332303a206275726e2066726f6d20746865207a65726f206164647265736044820152607360f81b6064820152608401610933565b6001600160a01b038216600090815260208190526040902054818110156122135760405162461bcd60e51b815260206004820152602260248201527f45524332303a206275726e20616d6f756e7420657863656564732062616c616e604482015261636560f01b6064820152608401610933565b6001600160a01b0383166000908152602081905260408120838303905560028054849290612242908490613af4565b90915550506040518281526000906001600160a01b038516907fddf252ad1be2c89b69c2b068fc378daa952ba7f163c4a11628f55a4df523b3ef9060200160405180910390a3505050565b600080600080600061229d6122d8565b6001600160701b0391821695501692506122b56123de565b90925090506122cf6122c8828587612dbe565b8390612edd565b94505050505090565b6000806000807f00000000000000000000000000000000000000000000000000000000000000006001600160a01b0316630902f1ac6040518163ffffffff1660e01b815260040160606040518083038186803b15801561233757600080fd5b505afa15801561234b573d6000803e3d6000fd5b505050506040513d601f19601f8201168201806040525081019061236f91906137a4565b5090925090506001600160a01b037f000000000000000000000000000000000000000000000000000000000000000081167f0000000000000000000000000000000000000000000000000000000000000000909116106123d05780826123d3565b81815b909590945092505050565b60008060006123eb6119ae565b905060006124957f00000000000000000000000000000000000000000000000000000000000000006001600160a01b03166318160ddd6040518163ffffffff1660e01b815260040160206040518083038186803b15801561244b57600080fd5b505afa15801561245f573d6000803e3d6000fd5b505050506040513d601f19601f8201168201806040525081019061248391906137f2565b6108a184678ac7230489e80000611b28565b90506000806124a26122d8565b90925090506124c6678ac7230489e800006108a1856001600160701b038616611b28565b95506124e7678ac7230489e800006108a1856001600160701b038516611b28565b9450505050509091565b6001600160a01b03811660009081526005602052604090208054600181018255905b50919050565b6000610779612526611f58565b8360405161190160f01b6020820152602281018390526042810182905260009060620160405160208183030381529060405280519060200120905092915050565b600080600061257887878787612ee9565b9150915061258581612fd6565b5095945050505050565b60008061259b836131d7565b6125a48361324a565b9094909350915050565b604080516002808252606082018352600092839291906020830190803683370190505090507f00000000000000000000000000000000000000000000000000000000000000008160008151811061261557634e487b7160e01b600052603260045260246000fd5b60200260200101906001600160a01b031690816001600160a01b0316815250507f00000000000000000000000000000000000000000000000000000000000000008160018151811061267757634e487b7160e01b600052603260045260246000fd5b6001600160a01b0392831660209182029290920101526000907f0000000000000000000000000000000000000000000000000000000000000000166338ed173985600185306126c842610e106139af565b6040518663ffffffff1660e01b81526004016126e895949392919061393f565b600060405180830381600087803b15801561270257600080fd5b505af1158015612716573d6000803e3d6000fd5b505050506040513d6000823e601f3d908101601f1916820160405261273e9190810190613662565b90508060018151811061276157634e487b7160e01b600052603260045260246000fd5b602002602001015192505050919050565b6040516001600160a01b038316602482015260448101829052610a5e90849063a9059cbb60e01b90606401611aa3565b60006127f7826040518060400160405280602081526020017f5361666545524332303a206c6f772d6c6576656c2063616c6c206661696c6564815250856001600160a01b03166133749092919063ffffffff16565b805190915015610a5e57808060200190518101906128159190613722565b610a5e5760405162461bcd60e51b815260206004820152602a60248201527f5361666545524332303a204552433230206f7065726174696f6e20646964206e6044820152691bdd081cdd58d8d9595960b21b6064820152608401610933565b604080516002808252606082018352600092839291906020830190803683370190505090507f0000000000000000000000000000000000000000000000000000000000000000816000815181106128db57634e487b7160e01b600052603260045260246000fd5b60200260200101906001600160a01b031690816001600160a01b0316815250507f00000000000000000000000000000000000000000000000000000000000000008160018151811061267757634e487b7160e01b600052603260045260246000fd5b600080808061295260646108a188605f611b28565b9050600061296660646108a188605f611b28565b90506001600160a01b037f00000000000000000000000000000000000000000000000000000000000000001663e8e337007f00000000000000000000000000000000000000000000000000000000000000007f00000000000000000000000000000000000000000000000000000000000000008a8a8787306129ea42610e106139af565b60405160e08a901b6001600160e01b03191681526001600160a01b039889166004820152968816602488015260448701959095526064860193909352608485019190915260a484015290921660c482015260e481019190915261010401606060405180830381600087803b158015612a6157600080fd5b505af1158015612a75573d6000803e3d6000fd5b505050506040513d601f19601f82011682018060405250810190612a99919061384e565b9998505050505050505050565b60405163095ea7b360e01b81526001600160a01b037f000000000000000000000000000000000000000000000000000000000000000081166004830152602482018390527f0000000000000000000000000000000000000000000000000000000000000000169063095ea7b390604401602060405180830381600087803b158015612b3057600080fd5b505af1158015612b44573d6000803e3d6000fd5b505050506040513d601f19601f82011682018060405250810190612b689190613722565b50604051631c57762b60e31b81527f00000000000000000000000000000000000000000000000000000000000000006004820152602481018290527f00000000000000000000000000000000000000000000000000000000000000006001600160a01b03169063e2bbb15890604401610b94565b60606000612beb836002613ad5565b612bf69060026139af565b67ffffffffffffffff811115612c1c57634e487b7160e01b600052604160045260246000fd5b6040519080825280601f01601f191660200182016040528015612c46576020820181803683370190505b509050600360fc1b81600081518110612c6f57634e487b7160e01b600052603260045260246000fd5b60200101906001600160f81b031916908160001a905350600f60fb1b81600181518110612cac57634e487b7160e01b600052603260045260246000fd5b60200101906001600160f81b031916908160001a9053506000612cd0846002613ad5565b612cdb9060016139af565b90505b6001811115612d6f576f181899199a1a9b1b9c1cb0b131b232b360811b85600f1660108110612d1d57634e487b7160e01b600052603260045260246000fd5b1a60f81b828281518110612d4157634e487b7160e01b600052603260045260246000fd5b60200101906001600160f81b031916908160001a90535060049490941c93612d6881613b37565b9050612cde565b508315610a315760405162461bcd60e51b815260206004820181905260248201527f537472696e67733a20686578206c656e67746820696e73756666696369656e746044820152606401610933565b6000808411612e235760405162461bcd60e51b815260206004820152602b60248201527f556e697377617056324c6962726172793a20494e53554646494349454e545f4960448201526a1394155517d05353d5539560aa1b6064820152608401610933565b600083118015612e335750600082115b612e905760405162461bcd60e51b815260206004820152602860248201527f556e697377617056324c6962726172793a20494e53554646494349454e545f4c604482015267495155494449545960c01b6064820152608401610933565b6000612e9e856103e5611b28565b90506000612eac8285611b28565b90506000612ec683612ec0886103e8611b28565b90612edd565b9050612ed281836139c7565b979650505050505050565b6000610a3182846139af565b6000807f7fffffffffffffffffffffffffffffff5d576e7357a4501ddfe92f46681b20a0831115612f205750600090506003612fcd565b8460ff16601b14158015612f3857508460ff16601c14155b15612f495750600090506004612fcd565b6040805160008082526020820180845289905260ff881692820192909252606081018690526080810185905260019060a0016020604051602081039080840390855afa158015612f9d573d6000803e3d6000fd5b5050604051601f1901519150506001600160a01b038116612fc657600060019250925050612fcd565b9150600090505b94509492505050565b6000816004811115612ff857634e487b7160e01b600052602160045260246000fd5b14156130015750565b600181600481111561302357634e487b7160e01b600052602160045260246000fd5b14156130715760405162461bcd60e51b815260206004820152601860248201527f45434453413a20696e76616c6964207369676e617475726500000000000000006044820152606401610933565b600281600481111561309357634e487b7160e01b600052602160045260246000fd5b14156130e15760405162461bcd60e51b815260206004820152601f60248201527f45434453413a20696e76616c6964207369676e6174757265206c656e677468006044820152606401610933565b600381600481111561310357634e487b7160e01b600052602160045260246000fd5b141561315c5760405162461bcd60e51b815260206004820152602260248201527f45434453413a20696e76616c6964207369676e6174757265202773272076616c604482015261756560f01b6064820152608401610933565b600481600481111561317e57634e487b7160e01b600052602160045260246000fd5b1415610c4e5760405162461bcd60e51b815260206004820152602260248201527f45434453413a20696e76616c6964207369676e6174757265202776272076616c604482015261756560f01b6064820152608401610933565b604051630441a3e760e41b81527f00000000000000000000000000000000000000000000000000000000000000006004820152602481018290527f00000000000000000000000000000000000000000000000000000000000000006001600160a01b03169063441a3e7090604401610b94565b6000806001600160a01b037f00000000000000000000000000000000000000000000000000000000000000001663baa2abde7f00000000000000000000000000000000000000000000000000000000000000007f000000000000000000000000000000000000000000000000000000000000000086600180306132cf42610e106139af565b60405160e089901b6001600160e01b03191681526001600160a01b039788166004820152958716602487015260448601949094526064850192909252608484015290921660a482015260c481019190915260e4016040805180830381600087803b15801561333c57600080fd5b505af1158015613350573d6000803e3d6000fd5b505050506040513d601f19601f820116820180604052508101906125a4919061382b565b6060613383848460008561338b565b949350505050565b6060824710156133ec5760405162461bcd60e51b815260206004820152602660248201527f416464726573733a20696e73756666696369656e742062616c616e636520666f6044820152651c8818d85b1b60d21b6064820152608401610933565b843b61343a5760405162461bcd60e51b815260206004820152601d60248201527f416464726573733a2063616c6c20746f206e6f6e2d636f6e74726163740000006044820152606401610933565b600080866001600160a01b03168587604051613456919061387b565b60006040518083038185875af1925050503d8060008114613493576040519150601f19603f3d011682016040523d82523d6000602084013e613498565b606091505b5091509150612ed2828286606083156134b2575081610a31565b8251156134c25782518084602001fd5b8160405162461bcd60e51b8152600401610933919061390c565b80356001600160a01b03811681146134f357600080fd5b919050565b80516001600160701b03811681146134f357600080fd5b600060208284031215613520578081fd5b610a31826134dc565b6000806040838503121561353b578081fd5b613544836134dc565b9150613552602084016134dc565b90509250929050565b60008060006060848603121561356f578081fd5b613578846134dc565b9250613586602085016134dc565b9150604084013590509250925092565b600080600080600080600060e0888a0312156135b0578283fd5b6135b9886134dc565b96506135c7602089016134dc565b95506040880135945060608801359350608088013560ff811681146135ea578384fd5b9699959850939692959460a0840135945060c09093013592915050565b60008060408385031215613619578182fd5b613622836134dc565b946020939093013593505050565b600080600060608486031215613644578283fd5b61364d846134dc565b95602085013595506040909401359392505050565b60006020808385031215613674578182fd5b825167ffffffffffffffff8082111561368b578384fd5b818501915085601f83011261369e578384fd5b8151818111156136b0576136b0613b99565b8060051b604051601f19603f830116810181811085821117156136d5576136d5613b99565b604052828152858101935084860182860187018a10156136f3578788fd5b8795505b838610156137155780518552600195909501949386019386016136f7565b5098975050505050505050565b600060208284031215613733578081fd5b81518015158114610a31578182fd5b600060208284031215613753578081fd5b5035919050565b6000806040838503121561376c578182fd5b82359150613552602084016134dc565b60006020828403121561378d578081fd5b81356001600160e01b031981168114610a31578182fd5b6000806000606084860312156137b8578283fd5b6137c1846134f8565b92506137cf602085016134f8565b9150604084015163ffffffff811681146137e7578182fd5b809150509250925092565b600060208284031215613803578081fd5b5051919050565b6000806040838503121561381c578182fd5b50508035926020909101359150565b6000806040838503121561383d578182fd5b505080516020909101519092909150565b600080600060608486031215613862578081fd5b8351925060208401519150604084015190509250925092565b6000825161388d818460208701613b0b565b9190910192915050565b7f416363657373436f6e74726f6c3a206163636f756e74200000000000000000008152600083516138cf816017850160208801613b0b565b7001034b99036b4b9b9b4b733903937b6329607d1b6017918401918201528351613900816028840160208801613b0b565b01602801949350505050565b602081526000825180602084015261392b816040850160208701613b0b565b601f01601f19169190910160400192915050565b600060a082018783526020878185015260a0604085015281875180845260c0860191508289019350845b8181101561398e5784516001600160a01b031683529383019391830191600101613969565b50506001600160a01b03969096166060850152505050608001529392505050565b600082198211156139c2576139c2613b83565b500190565b6000826139e257634e487b7160e01b81526012600452602481fd5b500490565b600181815b80851115613a22578160001904821115613a0857613a08613b83565b80851615613a1557918102915b93841c93908002906139ec565b509250929050565b6000610a3160ff841683600082613a4357506001610779565b81613a5057506000610779565b8160018114613a665760028114613a7057613a8c565b6001915050610779565b60ff841115613a8157613a81613b83565b50506001821b610779565b5060208310610133831016604e8410600b8410161715613aaf575081810a610779565b613ab983836139e7565b8060001904821115613acd57613acd613b83565b029392505050565b6000816000190483118215151615613aef57613aef613b83565b500290565b600082821015613b0657613b06613b83565b500390565b60005b83811015613b26578181015183820152602001613b0e565b83811115611ada5750506000910152565b600081613b4657613b46613b83565b506000190190565b600181811c90821680613b6257607f821691505b6020821081141561251357634e487b7160e01b600052602260045260246000fd5b634e487b7160e01b600052601160045260246000fd5b634e487b7160e01b600052604160045260246000fdfea2646970667358221220b94f7545c09621f8d135b41acd6738880503c2018d8e7bb6135e203fe2bfa29464736f6c63430008040033",
  "devdoc": {
    "kind": "dev",
    "methods": {
      "DOMAIN_SEPARATOR()": {
        "details": "See {IERC20Permit-DOMAIN_SEPARATOR}."
      },
      "allowance(address,address)": {
        "details": "See {IERC20-allowance}."
      },
      "approve(address,uint256)": {
        "details": "See {IERC20-approve}. Requirements: - `spender` cannot be the zero address."
      },
      "balanceOf(address)": {
        "details": "See {IERC20-balanceOf}."
      },
      "burn(uint256)": {
        "details": "Destroys `amount` tokens from the caller. See {ERC20-_burn}."
      },
      "burnFrom(address,uint256)": {
        "details": "Destroys `amount` tokens from `account`, deducting from the caller's allowance. See {ERC20-_burn} and {ERC20-allowance}. Requirements: - the caller must have allowance for ``accounts``'s tokens of at least `amount`."
      },
      "decreaseAllowance(address,uint256)": {
        "details": "Atomically decreases the allowance granted to `spender` by the caller. This is an alternative to {approve} that can be used as a mitigation for problems described in {IERC20-approve}. Emits an {Approval} event indicating the updated allowance. Requirements: - `spender` cannot be the zero address. - `spender` must have allowance for the caller of at least `subtractedValue`."
      },
      "getRoleAdmin(bytes32)": {
        "details": "Returns the admin role that controls `role`. See {grantRole} and {revokeRole}. To change a role's admin, use {_setRoleAdmin}."
      },
      "grantRole(bytes32,address)": {
        "details": "Grants `role` to `account`. If `account` had not been already granted `role`, emits a {RoleGranted} event. Requirements: - the caller must have ``role``'s admin role."
      },
      "hasRole(bytes32,address)": {
        "details": "Returns `true` if `account` has been granted `role`."
      },
      "increaseAllowance(address,uint256)": {
        "details": "Atomically increases the allowance granted to `spender` by the caller. This is an alternative to {approve} that can be used as a mitigation for problems described in {IERC20-approve}. Emits an {Approval} event indicating the updated allowance. Requirements: - `spender` cannot be the zero address."
      },
      "name()": {
        "details": "Returns the name of the token."
      },
      "nonces(address)": {
        "details": "See {IERC20Permit-nonces}."
      },
      "permit(address,address,uint256,uint256,uint8,bytes32,bytes32)": {
        "details": "See {IERC20Permit-permit}."
      },
      "renounceRole(bytes32,address)": {
        "details": "Revokes `role` from the calling account. Roles are often managed via {grantRole} and {revokeRole}: this function's purpose is to provide a mechanism for accounts to lose their privileges if they are compromised (such as when a trusted device is misplaced). If the calling account had been granted `role`, emits a {RoleRevoked} event. Requirements: - the caller must be `account`."
      },
      "revokeRole(bytes32,address)": {
        "details": "Revokes `role` from `account`. If `account` had been granted `role`, emits a {RoleRevoked} event. Requirements: - the caller must have ``role``'s admin role."
      },
      "supportsInterface(bytes4)": {
        "details": "See {IERC165-supportsInterface}."
      },
      "symbol()": {
        "details": "Returns the symbol of the token, usually a shorter version of the name."
      },
      "totalSupply()": {
        "details": "See {IERC20-totalSupply}."
      },
      "transfer(address,uint256)": {
        "details": "See {IERC20-transfer}. Requirements: - `recipient` cannot be the zero address. - the caller must have a balance of at least `amount`."
      },
      "transferFrom(address,address,uint256)": {
        "details": "See {IERC20-transferFrom}. Emits an {Approval} event indicating the updated allowance. This is not required by the EIP. See the note at the beginning of {ERC20}. Requirements: - `sender` and `recipient` cannot be the zero address. - `sender` must have a balance of at least `amount`. - the caller must have allowance for ``sender``'s tokens of at least `amount`."
      }
    },
    "version": 1
  },
  "userdoc": {
    "kind": "user",
    "methods": {},
    "version": 1
  },
  "storageLayout": {
    "storage": [
      {
        "astId": 499,
        "contract": "contracts/Peronio.sol:Peronio",
        "label": "_balances",
        "offset": 0,
        "slot": "0",
        "type": "t_mapping(t_address,t_uint256)"
      },
      {
        "astId": 505,
        "contract": "contracts/Peronio.sol:Peronio",
        "label": "_allowances",
        "offset": 0,
        "slot": "1",
        "type": "t_mapping(t_address,t_mapping(t_address,t_uint256))"
      },
      {
        "astId": 507,
        "contract": "contracts/Peronio.sol:Peronio",
        "label": "_totalSupply",
        "offset": 0,
        "slot": "2",
        "type": "t_uint256"
      },
      {
        "astId": 509,
        "contract": "contracts/Peronio.sol:Peronio",
        "label": "_name",
        "offset": 0,
        "slot": "3",
        "type": "t_string_storage"
      },
      {
        "astId": 511,
        "contract": "contracts/Peronio.sol:Peronio",
        "label": "_symbol",
        "offset": 0,
        "slot": "4",
        "type": "t_string_storage"
      },
      {
        "astId": 1217,
        "contract": "contracts/Peronio.sol:Peronio",
        "label": "_nonces",
        "offset": 0,
        "slot": "5",
        "type": "t_mapping(t_address,t_struct(Counter)1948_storage)"
      },
      {
        "astId": 24,
        "contract": "contracts/Peronio.sol:Peronio",
        "label": "_roles",
        "offset": 0,
        "slot": "6",
        "type": "t_mapping(t_bytes32,t_struct(RoleData)19_storage)"
      },
      {
        "astId": 3995,
        "contract": "contracts/Peronio.sol:Peronio",
        "label": "markup",
        "offset": 0,
        "slot": "7",
        "type": "t_uint256"
      },
      {
        "astId": 4006,
        "contract": "contracts/Peronio.sol:Peronio",
        "label": "swapFee",
        "offset": 0,
        "slot": "8",
        "type": "t_uint256"
      },
      {
        "astId": 4010,
        "contract": "contracts/Peronio.sol:Peronio",
        "label": "initialized",
        "offset": 0,
        "slot": "9",
        "type": "t_bool"
      }
    ],
    "types": {
      "t_address": {
        "encoding": "inplace",
        "label": "address",
        "numberOfBytes": "20"
      },
      "t_bool": {
        "encoding": "inplace",
        "label": "bool",
        "numberOfBytes": "1"
      },
      "t_bytes32": {
        "encoding": "inplace",
        "label": "bytes32",
        "numberOfBytes": "32"
      },
      "t_mapping(t_address,t_bool)": {
        "encoding": "mapping",
        "key": "t_address",
        "label": "mapping(address => bool)",
        "numberOfBytes": "32",
        "value": "t_bool"
      },
      "t_mapping(t_address,t_mapping(t_address,t_uint256))": {
        "encoding": "mapping",
        "key": "t_address",
        "label": "mapping(address => mapping(address => uint256))",
        "numberOfBytes": "32",
        "value": "t_mapping(t_address,t_uint256)"
      },
      "t_mapping(t_address,t_struct(Counter)1948_storage)": {
        "encoding": "mapping",
        "key": "t_address",
        "label": "mapping(address => struct Counters.Counter)",
        "numberOfBytes": "32",
        "value": "t_struct(Counter)1948_storage"
      },
      "t_mapping(t_address,t_uint256)": {
        "encoding": "mapping",
        "key": "t_address",
        "label": "mapping(address => uint256)",
        "numberOfBytes": "32",
        "value": "t_uint256"
      },
      "t_mapping(t_bytes32,t_struct(RoleData)19_storage)": {
        "encoding": "mapping",
        "key": "t_bytes32",
        "label": "mapping(bytes32 => struct AccessControl.RoleData)",
        "numberOfBytes": "32",
        "value": "t_struct(RoleData)19_storage"
      },
      "t_string_storage": {
        "encoding": "bytes",
        "label": "string",
        "numberOfBytes": "32"
      },
      "t_struct(Counter)1948_storage": {
        "encoding": "inplace",
        "label": "struct Counters.Counter",
        "members": [
          {
            "astId": 1947,
            "contract": "contracts/Peronio.sol:Peronio",
            "label": "_value",
            "offset": 0,
            "slot": "0",
            "type": "t_uint256"
          }
        ],
        "numberOfBytes": "32"
      },
      "t_struct(RoleData)19_storage": {
        "encoding": "inplace",
        "label": "struct AccessControl.RoleData",
        "members": [
          {
            "astId": 16,
            "contract": "contracts/Peronio.sol:Peronio",
            "label": "members",
            "offset": 0,
            "slot": "0",
            "type": "t_mapping(t_address,t_bool)"
          },
          {
            "astId": 18,
            "contract": "contracts/Peronio.sol:Peronio",
            "label": "adminRole",
            "offset": 0,
            "slot": "1",
            "type": "t_bytes32"
          }
        ],
        "numberOfBytes": "64"
      },
      "t_uint256": {
        "encoding": "inplace",
        "label": "uint256",
        "numberOfBytes": "32"
      }
    }
  }
}